{
  "_format": "hh-sol-artifact-1",
  "contractName": "GameContract",
  "sourceName": "contracts/GameContract.sol",
  "abi": [
    {
      "inputs": [
        {
          "internalType": "string[]",
          "name": "characterURIs",
          "type": "string[]"
        }
      ],
      "stateMutability": "nonpayable",
      "type": "constructor"
    },
    {
      "anonymous": false,
      "inputs": [
        {
          "indexed": true,
          "internalType": "address",
          "name": "owner",
          "type": "address"
        },
        {
          "indexed": true,
          "internalType": "address",
          "name": "approved",
          "type": "address"
        },
        {
          "indexed": true,
          "internalType": "uint256",
          "name": "tokenId",
          "type": "uint256"
        }
      ],
      "name": "Approval",
      "type": "event"
    },
    {
      "anonymous": false,
      "inputs": [
        {
          "indexed": true,
          "internalType": "address",
          "name": "owner",
          "type": "address"
        },
        {
          "indexed": true,
          "internalType": "address",
          "name": "operator",
          "type": "address"
        },
        {
          "indexed": false,
          "internalType": "bool",
          "name": "approved",
          "type": "bool"
        }
      ],
      "name": "ApprovalForAll",
      "type": "event"
    },
    {
      "anonymous": false,
      "inputs": [
        {
          "indexed": false,
          "internalType": "address",
          "name": "sender",
          "type": "address"
        },
        {
          "indexed": false,
          "internalType": "uint256",
          "name": "tokenId",
          "type": "uint256"
        },
        {
          "indexed": false,
          "internalType": "uint256",
          "name": "characterIndex",
          "type": "uint256"
        }
      ],
      "name": "CharacterNFTMinted",
      "type": "event"
    },
    {
      "anonymous": false,
      "inputs": [
        {
          "indexed": true,
          "internalType": "address",
          "name": "from",
          "type": "address"
        },
        {
          "indexed": true,
          "internalType": "address",
          "name": "to",
          "type": "address"
        },
        {
          "indexed": true,
          "internalType": "uint256",
          "name": "tokenId",
          "type": "uint256"
        }
      ],
      "name": "Transfer",
      "type": "event"
    },
    {
      "inputs": [
        {
          "internalType": "address",
          "name": "to",
          "type": "address"
        },
        {
          "internalType": "uint256",
          "name": "tokenId",
          "type": "uint256"
        }
      ],
      "name": "approve",
      "outputs": [],
      "stateMutability": "nonpayable",
      "type": "function"
    },
    {
      "inputs": [
        {
          "internalType": "address",
          "name": "owner",
          "type": "address"
        }
      ],
      "name": "balanceOf",
      "outputs": [
        {
          "internalType": "uint256",
          "name": "",
          "type": "uint256"
        }
      ],
      "stateMutability": "view",
      "type": "function"
    },
    {
      "inputs": [
        {
          "internalType": "uint256",
          "name": "_tokenId1",
          "type": "uint256"
        },
        {
          "internalType": "uint256",
          "name": "_tokenId2",
          "type": "uint256"
        }
      ],
      "name": "combineNFTs",
      "outputs": [],
      "stateMutability": "nonpayable",
      "type": "function"
    },
    {
      "inputs": [
        {
          "internalType": "uint256",
          "name": "tokenId",
          "type": "uint256"
        }
      ],
      "name": "getApproved",
      "outputs": [
        {
          "internalType": "address",
          "name": "",
          "type": "address"
        }
      ],
      "stateMutability": "view",
      "type": "function"
    },
    {
      "inputs": [],
      "name": "getDefaultCharacters",
      "outputs": [
        {
          "components": [
            {
              "internalType": "uint256",
              "name": "characterIndex",
              "type": "uint256"
            },
            {
              "internalType": "string",
              "name": "characterURI",
              "type": "string"
            }
          ],
          "internalType": "struct GameContract.CharacterAttributes[]",
          "name": "",
          "type": "tuple[]"
        }
      ],
      "stateMutability": "view",
      "type": "function"
    },
    {
      "inputs": [],
      "name": "getUserNFTS",
      "outputs": [
        {
          "components": [
            {
              "internalType": "uint256",
              "name": "tokenId",
              "type": "uint256"
            },
            {
              "internalType": "uint256",
              "name": "characterIndex",
              "type": "uint256"
            },
            {
              "internalType": "string",
              "name": "characterURI",
              "type": "string"
            }
          ],
          "internalType": "struct GameContract.UserCharacterAttributes[]",
          "name": "",
          "type": "tuple[]"
        }
      ],
      "stateMutability": "view",
      "type": "function"
    },
    {
      "inputs": [
        {
          "internalType": "address",
          "name": "owner",
          "type": "address"
        },
        {
          "internalType": "address",
          "name": "operator",
          "type": "address"
        }
      ],
      "name": "isApprovedForAll",
      "outputs": [
        {
          "internalType": "bool",
          "name": "",
          "type": "bool"
        }
      ],
      "stateMutability": "view",
      "type": "function"
    },
    {
      "inputs": [
        {
          "internalType": "uint256",
          "name": "_tokenId",
          "type": "uint256"
        }
      ],
      "name": "isOwner",
      "outputs": [
        {
          "internalType": "bool",
          "name": "",
          "type": "bool"
        }
      ],
      "stateMutability": "view",
      "type": "function"
    },
    {
      "inputs": [
        {
          "internalType": "uint256",
          "name": "_characterId",
          "type": "uint256"
        }
      ],
      "name": "mintNFT",
      "outputs": [],
      "stateMutability": "nonpayable",
      "type": "function"
    },
    {
      "inputs": [],
      "name": "name",
      "outputs": [
        {
          "internalType": "string",
          "name": "",
          "type": "string"
        }
      ],
      "stateMutability": "view",
      "type": "function"
    },
    {
      "inputs": [
        {
          "internalType": "address",
          "name": "",
          "type": "address"
        },
        {
          "internalType": "uint256",
          "name": "",
          "type": "uint256"
        }
      ],
      "name": "nftHolders",
      "outputs": [
        {
          "internalType": "uint256",
          "name": "tokenId",
          "type": "uint256"
        },
        {
          "internalType": "uint256",
          "name": "characterIndex",
          "type": "uint256"
        },
        {
          "internalType": "string",
          "name": "characterURI",
          "type": "string"
        }
      ],
      "stateMutability": "view",
      "type": "function"
    },
    {
      "inputs": [
        {
          "internalType": "uint256",
          "name": "",
          "type": "uint256"
        }
      ],
      "name": "nftTokenIdToAttributes",
      "outputs": [
        {
          "internalType": "uint256",
          "name": "characterIndex",
          "type": "uint256"
        },
        {
          "internalType": "string",
          "name": "characterURI",
          "type": "string"
        }
      ],
      "stateMutability": "view",
      "type": "function"
    },
    {
      "inputs": [
        {
          "internalType": "uint256",
          "name": "tokenId",
          "type": "uint256"
        }
      ],
      "name": "ownerOf",
      "outputs": [
        {
          "internalType": "address",
          "name": "",
          "type": "address"
        }
      ],
      "stateMutability": "view",
      "type": "function"
    },
    {
      "inputs": [
        {
          "internalType": "address",
          "name": "from",
          "type": "address"
        },
        {
          "internalType": "address",
          "name": "to",
          "type": "address"
        },
        {
          "internalType": "uint256",
          "name": "tokenId",
          "type": "uint256"
        }
      ],
      "name": "safeTransferFrom",
      "outputs": [],
      "stateMutability": "nonpayable",
      "type": "function"
    },
    {
      "inputs": [
        {
          "internalType": "address",
          "name": "from",
          "type": "address"
        },
        {
          "internalType": "address",
          "name": "to",
          "type": "address"
        },
        {
          "internalType": "uint256",
          "name": "tokenId",
          "type": "uint256"
        },
        {
          "internalType": "bytes",
          "name": "_data",
          "type": "bytes"
        }
      ],
      "name": "safeTransferFrom",
      "outputs": [],
      "stateMutability": "nonpayable",
      "type": "function"
    },
    {
      "inputs": [
        {
          "internalType": "address",
          "name": "operator",
          "type": "address"
        },
        {
          "internalType": "bool",
          "name": "approved",
          "type": "bool"
        }
      ],
      "name": "setApprovalForAll",
      "outputs": [],
      "stateMutability": "nonpayable",
      "type": "function"
    },
    {
      "inputs": [
        {
          "internalType": "bytes4",
          "name": "interfaceId",
          "type": "bytes4"
        }
      ],
      "name": "supportsInterface",
      "outputs": [
        {
          "internalType": "bool",
          "name": "",
          "type": "bool"
        }
      ],
      "stateMutability": "view",
      "type": "function"
    },
    {
      "inputs": [],
      "name": "symbol",
      "outputs": [
        {
          "internalType": "string",
          "name": "",
          "type": "string"
        }
      ],
      "stateMutability": "view",
      "type": "function"
    },
    {
      "inputs": [
        {
          "internalType": "uint256",
          "name": "tokenId",
          "type": "uint256"
        }
      ],
      "name": "tokenURI",
      "outputs": [
        {
          "internalType": "string",
          "name": "",
          "type": "string"
        }
      ],
      "stateMutability": "view",
      "type": "function"
    },
    {
      "inputs": [
        {
          "internalType": "address",
          "name": "from",
          "type": "address"
        },
        {
          "internalType": "address",
          "name": "to",
          "type": "address"
        },
        {
          "internalType": "uint256",
          "name": "tokenId",
          "type": "uint256"
        }
      ],
      "name": "transferFrom",
      "outputs": [],
      "stateMutability": "nonpayable",
      "type": "function"
    }
  ],
  "bytecode": "0x60806040523480156200001157600080fd5b50604051620042bc380380620042bc8339818101604052810190620000379190620004ab565b6040518060400160405280600a81526020017f416c6368656d69737473000000000000000000000000000000000000000000008152506040518060400160405280600281526020017f414c0000000000000000000000000000000000000000000000000000000000008152508160009080519060200190620000bb929190620002f7565b508060019080519060200190620000d4929190620002f7565b50505060005b8151811015620001f3576008604051806040016040528083815260200184848151811062000131577f4e487b7100000000000000000000000000000000000000000000000000000000600052603260045260246000fd5b602002602001015181525090806001815401808255809150506001900390600052602060002090600202016000909190919091506000820151816000015560208201518160010190805190602001906200018d929190620002f7565b505050620001dc6040518060400160405280601e81526020017f446f6e6520696e697469616c697a696e67206368617261637465722025730000815250826200021260201b620015ce1760201c565b600181620001eb919062000628565b9050620000da565b506200020b6007620002b860201b6200166a1760201c565b5062000799565b620002b482826040516024016200022b92919062000542565b6040516020818303038152906040527f9710a9d0000000000000000000000000000000000000000000000000000000007bffffffffffffffffffffffffffffffffffffffffffffffffffffffff19166020820180517bffffffffffffffffffffffffffffffffffffffffffffffffffffffff8381831617835250505050620002ce60201b60201c565b5050565b6001816000016000828254019250508190555050565b60008151905060006a636f6e736f6c652e6c6f679050602083016000808483855afa5050505050565b8280546200030590620006c5565b90600052602060002090601f01602090048101928262000329576000855562000375565b82601f106200034457805160ff191683800117855562000375565b8280016001018555821562000375579182015b828111156200037457825182559160200191906001019062000357565b5b50905062000384919062000388565b5090565b5b80821115620003a357600081600090555060010162000389565b5090565b6000620003be620003b884620005aa565b62000576565b9050808382526020820190508260005b85811015620004025781518501620003e788826200047e565b845260208401935060208301925050600181019050620003ce565b5050509392505050565b6000620004236200041d84620005d9565b62000576565b9050828152602081018484840111156200043c57600080fd5b620004498482856200068f565b509392505050565b600082601f8301126200046357600080fd5b815162000475848260208601620003a7565b91505092915050565b600082601f8301126200049057600080fd5b8151620004a28482602086016200040c565b91505092915050565b600060208284031215620004be57600080fd5b600082015167ffffffffffffffff811115620004d957600080fd5b620004e78482850162000451565b91505092915050565b6000620004fd826200060c565b62000509818562000617565b93506200051b8185602086016200068f565b620005268162000788565b840191505092915050565b6200053c8162000685565b82525050565b600060408201905081810360008301526200055e8185620004f0565b90506200056f602083018462000531565b9392505050565b6000604051905081810181811067ffffffffffffffff82111715620005a0576200059f62000759565b5b8060405250919050565b600067ffffffffffffffff821115620005c857620005c762000759565b5b602082029050602081019050919050565b600067ffffffffffffffff821115620005f757620005f662000759565b5b601f19601f8301169050602081019050919050565b600081519050919050565b600082825260208201905092915050565b6000620006358262000685565b9150620006428362000685565b9250827fffffffffffffffffffffffffffffffffffffffffffffffffffffffffffffffff038211156200067a5762000679620006fb565b5b828201905092915050565b6000819050919050565b60005b83811015620006af57808201518184015260208101905062000692565b83811115620006bf576000848401525b50505050565b60006002820490506001821680620006de57607f821691505b60208210811415620006f557620006f46200072a565b5b50919050565b7f4e487b7100000000000000000000000000000000000000000000000000000000600052601160045260246000fd5b7f4e487b7100000000000000000000000000000000000000000000000000000000600052602260045260246000fd5b7f4e487b7100000000000000000000000000000000000000000000000000000000600052604160045260246000fd5b6000601f19601f8301169050919050565b613b1380620007a96000396000f3fe608060405234801561001057600080fd5b506004361061012c5760003560e01c806374bce80a116100ad578063a22cb46511610071578063a22cb4651461036c578063b88d4fde14610388578063c87b56dd146103a4578063d3c67299146103d4578063e985e9c5146103f05761012c565b806374bce80a146102b1578063775bb50e146102cf578063926427441461030157806395d89b411461031d5780639ddcf4fa1461033b5761012c565b806323b872dd116100f457806323b872dd146101e957806339c7639c1461020557806342842e0e146102355780636352211e1461025157806370a08231146102815761012c565b806301ffc9a71461013157806306fdde0314610161578063081812fc1461017f57806308e34145146101af578063095ea7b3146101cd575b600080fd5b61014b6004803603810190610146919061287c565b610420565b60405161015891906132de565b60405180910390f35b610169610502565b60405161017691906132f9565b60405180910390f35b610199600480360381019061019491906128ce565b610594565b6040516101a691906131fc565b60405180910390f35b6101b7610619565b6040516101c491906132bc565b60405180910390f35b6101e760048036038101906101e29190612840565b6107b2565b005b61020360048036038101906101fe919061273a565b6108ca565b005b61021f600480360381019061021a91906128ce565b61092a565b60405161022c91906132de565b60405180910390f35b61024f600480360381019061024a919061273a565b610a30565b005b61026b600480360381019061026691906128ce565b610a50565b60405161027891906131fc565b60405180910390f35b61029b600480360381019061029691906126d5565b610b02565b6040516102a891906135b9565b60405180910390f35b6102b9610bba565b6040516102c6919061329a565b60405180910390f35b6102e960048036038101906102e49190612840565b610cb5565b6040516102f893929190613604565b60405180910390f35b61031b600480360381019061031691906128ce565b610d84565b005b610325611199565b60405161033291906132f9565b60405180910390f35b610355600480360381019061035091906128ce565b61122b565b6040516103639291906135d4565b60405180910390f35b61038660048036038101906103819190612804565b6112d7565b005b6103a2600480360381019061039d9190612789565b6112ed565b005b6103be60048036038101906103b991906128ce565b61134f565b6040516103cb91906132f9565b60405180910390f35b6103ee60048036038101906103e991906128f7565b6114a1565b005b61040a600480360381019061040591906126fe565b61153a565b60405161041791906132de565b60405180910390f35b60007f80ac58cd000000000000000000000000000000000000000000000000000000007bffffffffffffffffffffffffffffffffffffffffffffffffffffffff1916827bffffffffffffffffffffffffffffffffffffffffffffffffffffffff191614806104eb57507f5b5e139f000000000000000000000000000000000000000000000000000000007bffffffffffffffffffffffffffffffffffffffffffffffffffffffff1916827bffffffffffffffffffffffffffffffffffffffffffffffffffffffff1916145b806104fb57506104fa82611680565b5b9050919050565b606060008054610511906138da565b80601f016020809104026020016040519081016040528092919081815260200182805461053d906138da565b801561058a5780601f1061055f5761010080835404028352916020019161058a565b820191906000526020600020905b81548152906001019060200180831161056d57829003601f168201915b5050505050905090565b600061059f826116ea565b6105de576040517f08c379a00000000000000000000000000000000000000000000000000000000081526004016105d590613519565b60405180910390fd5b6004600083815260200190815260200160002060009054906101000a900473ffffffffffffffffffffffffffffffffffffffff169050919050565b60606000600b60003373ffffffffffffffffffffffffffffffffffffffff1673ffffffffffffffffffffffffffffffffffffffff1681526020019081526020016000208054905011156107a857600b60003373ffffffffffffffffffffffffffffffffffffffff1673ffffffffffffffffffffffffffffffffffffffff168152602001908152602001600020805480602002602001604051908101604052809291908181526020016000905b8282101561079d5783829060005260206000209060030201604051806060016040529081600082015481526020016001820154815260200160028201805461070c906138da565b80601f0160208091040260200160405190810160405280929190818152602001828054610738906138da565b80156107855780601f1061075a57610100808354040283529160200191610785565b820191906000526020600020905b81548152906001019060200180831161076857829003601f168201915b505050505081525050815260200190600101906106c5565b5050505090506107af565b6060809150505b90565b60006107bd82610a50565b90508073ffffffffffffffffffffffffffffffffffffffff168373ffffffffffffffffffffffffffffffffffffffff16141561082e576040517f08c379a000000000000000000000000000000000000000000000000000000000815260040161082590613579565b60405180910390fd5b8073ffffffffffffffffffffffffffffffffffffffff1661084d611756565b73ffffffffffffffffffffffffffffffffffffffff16148061087c575061087b81610876611756565b61153a565b5b6108bb576040517f08c379a00000000000000000000000000000000000000000000000000000000081526004016108b290613459565b60405180910390fd5b6108c5838361175e565b505050565b6108db6108d5611756565b82611817565b61091a576040517f08c379a000000000000000000000000000000000000000000000000000000000815260040161091190613599565b60405180910390fd5b6109258383836118f5565b505050565b6000805b600b60003373ffffffffffffffffffffffffffffffffffffffff1673ffffffffffffffffffffffffffffffffffffffff16815260200190815260200160002080549050811015610a255782600b60003373ffffffffffffffffffffffffffffffffffffffff1673ffffffffffffffffffffffffffffffffffffffff16815260200190815260200160002082815481106109f0577f4e487b7100000000000000000000000000000000000000000000000000000000600052603260045260246000fd5b9060005260206000209060030201600001541415610a12576001915050610a2b565b8080610a1d9061390c565b91505061092e565b50600090505b919050565b610a4b838383604051806020016040528060008152506112ed565b505050565b6000806002600084815260200190815260200160002060009054906101000a900473ffffffffffffffffffffffffffffffffffffffff169050600073ffffffffffffffffffffffffffffffffffffffff168173ffffffffffffffffffffffffffffffffffffffff161415610af9576040517f08c379a0000000000000000000000000000000000000000000000000000000008152600401610af090613499565b60405180910390fd5b80915050919050565b60008073ffffffffffffffffffffffffffffffffffffffff168273ffffffffffffffffffffffffffffffffffffffff161415610b73576040517f08c379a0000000000000000000000000000000000000000000000000000000008152600401610b6a90613479565b60405180910390fd5b600360008373ffffffffffffffffffffffffffffffffffffffff1673ffffffffffffffffffffffffffffffffffffffff168152602001908152602001600020549050919050565b60606008805480602002602001604051908101604052809291908181526020016000905b82821015610cac578382906000526020600020906002020160405180604001604052908160008201548152602001600182018054610c1b906138da565b80601f0160208091040260200160405190810160405280929190818152602001828054610c47906138da565b8015610c945780601f10610c6957610100808354040283529160200191610c94565b820191906000526020600020905b815481529060010190602001808311610c7757829003601f168201915b50505050508152505081526020019060010190610bde565b50505050905090565b600b6020528160005260406000208181548110610cd157600080fd5b906000526020600020906003020160009150915050806000015490806001015490806002018054610d01906138da565b80601f0160208091040260200160405190810160405280929190818152602001828054610d2d906138da565b8015610d7a5780601f10610d4f57610100808354040283529160200191610d7a565b820191906000526020600020905b815481529060010190602001808311610d5d57829003601f168201915b5050505050905083565b6000610d906007611b51565b9050610d9c3382611b5f565b604051806040016040528083815260200160088481548110610de7577f4e487b7100000000000000000000000000000000000000000000000000000000600052603260045260246000fd5b90600052602060002090600202016001018054610e03906138da565b80601f0160208091040260200160405190810160405280929190818152602001828054610e2f906138da565b8015610e7c5780601f10610e5157610100808354040283529160200191610e7c565b820191906000526020600020905b815481529060010190602001808311610e5f57829003601f168201915b5050505050815250600a6000838152602001908152602001600020600082015181600001556020820151816001019080519060200190610ebd929190612561565b50905050600060088381548110610efd577f4e487b7100000000000000000000000000000000000000000000000000000000600052603260045260246000fd5b90600052602060002090600202016001018054610f19906138da565b80601f0160208091040260200160405190810160405280929190818152602001828054610f45906138da565b8015610f925780601f10610f6757610100808354040283529160200191610f92565b820191906000526020600020905b815481529060010190602001808311610f7557829003601f168201915b50505050509050610fa38282611b7d565b610fc66040518060600160405280602e8152602001613ab0602e91398385611bf1565b600b60003373ffffffffffffffffffffffffffffffffffffffff1673ffffffffffffffffffffffffffffffffffffffff168152602001908152602001600020604051806060016040528084815260200185815260200160088681548110611056577f4e487b7100000000000000000000000000000000000000000000000000000000600052603260045260246000fd5b90600052602060002090600202016001018054611072906138da565b80601f016020809104026020016040519081016040528092919081815260200182805461109e906138da565b80156110eb5780601f106110c0576101008083540402835291602001916110eb565b820191906000526020600020905b8154815290600101906020018083116110ce57829003601f168201915b505050505081525090806001815401808255809150506001900390600052602060002090600302016000909190919091506000820151816000015560208201518160010155604082015181600201908051906020019061114c929190612561565b505050611159600761166a565b7f4bc303fd457a97b4691b9af582ce71868a3d258638c8d4f8c60988a0f0bfb8cd33838560405161118c93929190613263565b60405180910390a1505050565b6060600180546111a8906138da565b80601f01602080910402602001604051908101604052809291908181526020018280546111d4906138da565b80156112215780601f106111f657610100808354040283529160200191611221565b820191906000526020600020905b81548152906001019060200180831161120457829003601f168201915b5050505050905090565b600a602052806000526040600020600091509050806000015490806001018054611254906138da565b80601f0160208091040260200160405190810160405280929190818152602001828054611280906138da565b80156112cd5780601f106112a2576101008083540402835291602001916112cd565b820191906000526020600020905b8154815290600101906020018083116112b057829003601f168201915b5050505050905082565b6112e96112e2611756565b8383611c90565b5050565b6112fe6112f8611756565b83611817565b61133d576040517f08c379a000000000000000000000000000000000000000000000000000000000815260040161133490613599565b60405180910390fd5b61134984848484611dfd565b50505050565b606061135a826116ea565b611399576040517f08c379a0000000000000000000000000000000000000000000000000000000008152600401611390906134f9565b60405180910390fd5b60006006600084815260200190815260200160002080546113b9906138da565b80601f01602080910402602001604051908101604052809291908181526020018280546113e5906138da565b80156114325780601f1061140757610100808354040283529160200191611432565b820191906000526020600020905b81548152906001019060200180831161141557829003601f168201915b505050505090506000611443611e59565b905060008151141561145957819250505061149c565b60008251111561148e5780826040516020016114769291906131d8565b6040516020818303038152906040529250505061149c565b61149784611e70565b925050505b919050565b6114aa8261092a565b80156114bb57506114ba8161092a565b5b15611536576114ff6040518060400160405280601b81526020017f257320697320746865206f776e6572206f6620746865204e465473000000000081525033611f17565b60018214801561150f5750600281145b156115355761151f3330846108ca565b61152a3330836108ca565b6115346002610d84565b5b5b5050565b6000600560008473ffffffffffffffffffffffffffffffffffffffff1673ffffffffffffffffffffffffffffffffffffffff16815260200190815260200160002060008373ffffffffffffffffffffffffffffffffffffffff1673ffffffffffffffffffffffffffffffffffffffff16815260200190815260200160002060009054906101000a900460ff16905092915050565b61166682826040516024016115e492919061334b565b6040516020818303038152906040527f9710a9d0000000000000000000000000000000000000000000000000000000007bffffffffffffffffffffffffffffffffffffffffffffffffffffffff19166020820180517bffffffffffffffffffffffffffffffffffffffffffffffffffffffff8381831617835250505050611fb3565b5050565b6001816000016000828254019250508190555050565b60007f01ffc9a7000000000000000000000000000000000000000000000000000000007bffffffffffffffffffffffffffffffffffffffffffffffffffffffff1916827bffffffffffffffffffffffffffffffffffffffffffffffffffffffff1916149050919050565b60008073ffffffffffffffffffffffffffffffffffffffff166002600084815260200190815260200160002060009054906101000a900473ffffffffffffffffffffffffffffffffffffffff1673ffffffffffffffffffffffffffffffffffffffff1614159050919050565b600033905090565b816004600083815260200190815260200160002060006101000a81548173ffffffffffffffffffffffffffffffffffffffff021916908373ffffffffffffffffffffffffffffffffffffffff160217905550808273ffffffffffffffffffffffffffffffffffffffff166117d183610a50565b73ffffffffffffffffffffffffffffffffffffffff167f8c5be1e5ebec7d5bd14f71427d1e84f3dd0314c0f7b2291e5b200ac8c7c3b92560405160405180910390a45050565b6000611822826116ea565b611861576040517f08c379a000000000000000000000000000000000000000000000000000000000815260040161185890613439565b60405180910390fd5b600061186c83610a50565b90508073ffffffffffffffffffffffffffffffffffffffff168473ffffffffffffffffffffffffffffffffffffffff1614806118db57508373ffffffffffffffffffffffffffffffffffffffff166118c384610594565b73ffffffffffffffffffffffffffffffffffffffff16145b806118ec57506118eb818561153a565b5b91505092915050565b8273ffffffffffffffffffffffffffffffffffffffff1661191582610a50565b73ffffffffffffffffffffffffffffffffffffffff161461196b576040517f08c379a000000000000000000000000000000000000000000000000000000000815260040161196290613539565b60405180910390fd5b600073ffffffffffffffffffffffffffffffffffffffff168273ffffffffffffffffffffffffffffffffffffffff1614156119db576040517f08c379a00000000000000000000000000000000000000000000000000000000081526004016119d2906133f9565b60405180910390fd5b6119e6838383611fdc565b6119f160008261175e565b6001600360008573ffffffffffffffffffffffffffffffffffffffff1673ffffffffffffffffffffffffffffffffffffffff1681526020019081526020016000206000828254611a4191906137f0565b925050819055506001600360008473ffffffffffffffffffffffffffffffffffffffff1673ffffffffffffffffffffffffffffffffffffffff1681526020019081526020016000206000828254611a989190613769565b92505081905550816002600083815260200190815260200160002060006101000a81548173ffffffffffffffffffffffffffffffffffffffff021916908373ffffffffffffffffffffffffffffffffffffffff160217905550808273ffffffffffffffffffffffffffffffffffffffff168473ffffffffffffffffffffffffffffffffffffffff167fddf252ad1be2c89b69c2b068fc378daa952ba7f163c4a11628f55a4df523b3ef60405160405180910390a4505050565b600081600001549050919050565b611b79828260405180602001604052806000815250611fe1565b5050565b611b86826116ea565b611bc5576040517f08c379a0000000000000000000000000000000000000000000000000000000008152600401611bbc906134b9565b60405180910390fd5b80600660008481526020019081526020016000209080519060200190611bec929190612561565b505050565b611c8b838383604051602401611c099392919061337b565b6040516020818303038152906040527f969cdd03000000000000000000000000000000000000000000000000000000007bffffffffffffffffffffffffffffffffffffffffffffffffffffffff19166020820180517bffffffffffffffffffffffffffffffffffffffffffffffffffffffff8381831617835250505050611fb3565b505050565b8173ffffffffffffffffffffffffffffffffffffffff168373ffffffffffffffffffffffffffffffffffffffff161415611cff576040517f08c379a0000000000000000000000000000000000000000000000000000000008152600401611cf690613419565b60405180910390fd5b80600560008573ffffffffffffffffffffffffffffffffffffffff1673ffffffffffffffffffffffffffffffffffffffff16815260200190815260200160002060008473ffffffffffffffffffffffffffffffffffffffff1673ffffffffffffffffffffffffffffffffffffffff16815260200190815260200160002060006101000a81548160ff0219169083151502179055508173ffffffffffffffffffffffffffffffffffffffff168373ffffffffffffffffffffffffffffffffffffffff167f17307eab39ab6107e8899845ad3d59bd9653f200f220920489ca2b5937696c3183604051611df091906132de565b60405180910390a3505050565b611e088484846118f5565b611e148484848461203c565b611e53576040517f08c379a0000000000000000000000000000000000000000000000000000000008152600401611e4a906133b9565b60405180910390fd5b50505050565b606060405180602001604052806000815250905090565b6060611e7b826116ea565b611eba576040517f08c379a0000000000000000000000000000000000000000000000000000000008152600401611eb190613559565b60405180910390fd5b6000611ec4611e59565b90506000815111611ee45760405180602001604052806000815250611f0f565b80611eee846121d3565b604051602001611eff9291906131d8565b6040516020818303038152906040525b915050919050565b611faf8282604051602401611f2d92919061331b565b6040516020818303038152906040527f319af333000000000000000000000000000000000000000000000000000000007bffffffffffffffffffffffffffffffffffffffffffffffffffffffff19166020820180517bffffffffffffffffffffffffffffffffffffffffffffffffffffffff8381831617835250505050611fb3565b5050565b60008151905060006a636f6e736f6c652e6c6f679050602083016000808483855afa5050505050565b505050565b611feb8383612380565b611ff8600084848461203c565b612037576040517f08c379a000000000000000000000000000000000000000000000000000000000815260040161202e906133b9565b60405180910390fd5b505050565b600061205d8473ffffffffffffffffffffffffffffffffffffffff1661254e565b156121c6578373ffffffffffffffffffffffffffffffffffffffff1663150b7a02612086611756565b8786866040518563ffffffff1660e01b81526004016120a89493929190613217565b602060405180830381600087803b1580156120c257600080fd5b505af19250505080156120f357506040513d601f19601f820116820180604052508101906120f091906128a5565b60015b612176573d8060008114612123576040519150601f19603f3d011682016040523d82523d6000602084013e612128565b606091505b5060008151141561216e576040517f08c379a0000000000000000000000000000000000000000000000000000000008152600401612165906133b9565b60405180910390fd5b805181602001fd5b63150b7a0260e01b7bffffffffffffffffffffffffffffffffffffffffffffffffffffffff1916817bffffffffffffffffffffffffffffffffffffffffffffffffffffffff1916149150506121cb565b600190505b949350505050565b6060600082141561221b576040518060400160405280600181526020017f3000000000000000000000000000000000000000000000000000000000000000815250905061237b565b600082905060005b6000821461224d5780806122369061390c565b915050600a8261224691906137bf565b9150612223565b60008167ffffffffffffffff81111561228f577f4e487b7100000000000000000000000000000000000000000000000000000000600052604160045260246000fd5b6040519080825280601f01601f1916602001820160405280156122c15781602001600182028036833780820191505090505b5090505b60008514612374576001826122da91906137f0565b9150600a856122e99190613955565b60306122f59190613769565b60f81b818381518110612331577f4e487b7100000000000000000000000000000000000000000000000000000000600052603260045260246000fd5b60200101907effffffffffffffffffffffffffffffffffffffffffffffffffffffffffffff1916908160001a905350600a8561236d91906137bf565b94506122c5565b8093505050505b919050565b600073ffffffffffffffffffffffffffffffffffffffff168273ffffffffffffffffffffffffffffffffffffffff1614156123f0576040517f08c379a00000000000000000000000000000000000000000000000000000000081526004016123e7906134d9565b60405180910390fd5b6123f9816116ea565b15612439576040517f08c379a0000000000000000000000000000000000000000000000000000000008152600401612430906133d9565b60405180910390fd5b61244560008383611fdc565b6001600360008473ffffffffffffffffffffffffffffffffffffffff1673ffffffffffffffffffffffffffffffffffffffff16815260200190815260200160002060008282546124959190613769565b92505081905550816002600083815260200190815260200160002060006101000a81548173ffffffffffffffffffffffffffffffffffffffff021916908373ffffffffffffffffffffffffffffffffffffffff160217905550808273ffffffffffffffffffffffffffffffffffffffff16600073ffffffffffffffffffffffffffffffffffffffff167fddf252ad1be2c89b69c2b068fc378daa952ba7f163c4a11628f55a4df523b3ef60405160405180910390a45050565b600080823b905060008111915050919050565b82805461256d906138da565b90600052602060002090601f01602090048101928261258f57600085556125d6565b82601f106125a857805160ff19168380011785556125d6565b828001600101855582156125d6579182015b828111156125d55782518255916020019190600101906125ba565b5b5090506125e391906125e7565b5090565b5b808211156126005760008160009055506001016125e8565b5090565b600061261761261284613673565b613642565b90508281526020810184848401111561262f57600080fd5b61263a848285613898565b509392505050565b60008135905061265181613a53565b92915050565b60008135905061266681613a6a565b92915050565b60008135905061267b81613a81565b92915050565b60008151905061269081613a81565b92915050565b600082601f8301126126a757600080fd5b81356126b7848260208601612604565b91505092915050565b6000813590506126cf81613a98565b92915050565b6000602082840312156126e757600080fd5b60006126f584828501612642565b91505092915050565b6000806040838503121561271157600080fd5b600061271f85828601612642565b925050602061273085828601612642565b9150509250929050565b60008060006060848603121561274f57600080fd5b600061275d86828701612642565b935050602061276e86828701612642565b925050604061277f868287016126c0565b9150509250925092565b6000806000806080858703121561279f57600080fd5b60006127ad87828801612642565b94505060206127be87828801612642565b93505060406127cf878288016126c0565b925050606085013567ffffffffffffffff8111156127ec57600080fd5b6127f887828801612696565b91505092959194509250565b6000806040838503121561281757600080fd5b600061282585828601612642565b925050602061283685828601612657565b9150509250929050565b6000806040838503121561285357600080fd5b600061286185828601612642565b9250506020612872858286016126c0565b9150509250929050565b60006020828403121561288e57600080fd5b600061289c8482850161266c565b91505092915050565b6000602082840312156128b757600080fd5b60006128c584828501612681565b91505092915050565b6000602082840312156128e057600080fd5b60006128ee848285016126c0565b91505092915050565b6000806040838503121561290a57600080fd5b6000612918858286016126c0565b9250506020612929858286016126c0565b9150509250929050565b600061293f838361312d565b905092915050565b6000612953838361316a565b905092915050565b61296481613824565b82525050565b6000612975826136c3565b61297f8185613709565b935083602082028501612991856136a3565b8060005b858110156129cd57848403895281516129ae8582612933565b94506129b9836136ef565b925060208a01995050600181019050612995565b50829750879550505050505092915050565b60006129ea826136ce565b6129f4818561371a565b935083602082028501612a06856136b3565b8060005b85811015612a425784840389528151612a238582612947565b9450612a2e836136fc565b925060208a01995050600181019050612a0a565b50829750879550505050505092915050565b612a5d81613836565b82525050565b6000612a6e826136d9565b612a78818561372b565b9350612a888185602086016138a7565b612a9181613a42565b840191505092915050565b6000612aa7826136e4565b612ab1818561373c565b9350612ac18185602086016138a7565b612aca81613a42565b840191505092915050565b6000612ae0826136e4565b612aea818561374d565b9350612afa8185602086016138a7565b612b0381613a42565b840191505092915050565b6000612b19826136e4565b612b23818561375e565b9350612b338185602086016138a7565b80840191505092915050565b6000612b4c60328361374d565b91507f4552433732313a207472616e7366657220746f206e6f6e20455243373231526560008301527f63656976657220696d706c656d656e74657200000000000000000000000000006020830152604082019050919050565b6000612bb2601c8361374d565b91507f4552433732313a20746f6b656e20616c7265616479206d696e746564000000006000830152602082019050919050565b6000612bf260248361374d565b91507f4552433732313a207472616e7366657220746f20746865207a65726f2061646460008301527f72657373000000000000000000000000000000000000000000000000000000006020830152604082019050919050565b6000612c5860198361374d565b91507f4552433732313a20617070726f766520746f2063616c6c6572000000000000006000830152602082019050919050565b6000612c98602c8361374d565b91507f4552433732313a206f70657261746f7220717565727920666f72206e6f6e657860008301527f697374656e7420746f6b656e00000000000000000000000000000000000000006020830152604082019050919050565b6000612cfe60388361374d565b91507f4552433732313a20617070726f76652063616c6c6572206973206e6f74206f7760008301527f6e6572206e6f7220617070726f76656420666f7220616c6c00000000000000006020830152604082019050919050565b6000612d64602a8361374d565b91507f4552433732313a2062616c616e636520717565727920666f7220746865207a6560008301527f726f2061646472657373000000000000000000000000000000000000000000006020830152604082019050919050565b6000612dca60298361374d565b91507f4552433732313a206f776e657220717565727920666f72206e6f6e657869737460008301527f656e7420746f6b656e00000000000000000000000000000000000000000000006020830152604082019050919050565b6000612e30602e8361374d565b91507f45524337323155524953746f726167653a2055524920736574206f66206e6f6e60008301527f6578697374656e7420746f6b656e0000000000000000000000000000000000006020830152604082019050919050565b6000612e9660208361374d565b91507f4552433732313a206d696e7420746f20746865207a65726f20616464726573736000830152602082019050919050565b6000612ed660318361374d565b91507f45524337323155524953746f726167653a2055524920717565727920666f722060008301527f6e6f6e6578697374656e7420746f6b656e0000000000000000000000000000006020830152604082019050919050565b6000612f3c602c8361374d565b91507f4552433732313a20617070726f76656420717565727920666f72206e6f6e657860008301527f697374656e7420746f6b656e00000000000000000000000000000000000000006020830152604082019050919050565b6000612fa260298361374d565b91507f4552433732313a207472616e73666572206f6620746f6b656e2074686174206960008301527f73206e6f74206f776e00000000000000000000000000000000000000000000006020830152604082019050919050565b6000613008602f8361374d565b91507f4552433732314d657461646174613a2055524920717565727920666f72206e6f60008301527f6e6578697374656e7420746f6b656e00000000000000000000000000000000006020830152604082019050919050565b600061306e60218361374d565b91507f4552433732313a20617070726f76616c20746f2063757272656e74206f776e6560008301527f72000000000000000000000000000000000000000000000000000000000000006020830152604082019050919050565b60006130d460318361374d565b91507f4552433732313a207472616e736665722063616c6c6572206973206e6f74206f60008301527f776e6572206e6f7220617070726f7665640000000000000000000000000000006020830152604082019050919050565b600060408301600083015161314560008601826131ba565b506020830151848203602086015261315d8282612a9c565b9150508091505092915050565b600060608301600083015161318260008601826131ba565b50602083015161319560208601826131ba565b50604083015184820360408601526131ad8282612a9c565b9150508091505092915050565b6131c38161388e565b82525050565b6131d28161388e565b82525050565b60006131e48285612b0e565b91506131f08284612b0e565b91508190509392505050565b6000602082019050613211600083018461295b565b92915050565b600060808201905061322c600083018761295b565b613239602083018661295b565b61324660408301856131c9565b81810360608301526132588184612a63565b905095945050505050565b6000606082019050613278600083018661295b565b61328560208301856131c9565b61329260408301846131c9565b949350505050565b600060208201905081810360008301526132b4818461296a565b905092915050565b600060208201905081810360008301526132d681846129df565b905092915050565b60006020820190506132f36000830184612a54565b92915050565b600060208201905081810360008301526133138184612ad5565b905092915050565b600060408201905081810360008301526133358185612ad5565b9050613344602083018461295b565b9392505050565b600060408201905081810360008301526133658185612ad5565b905061337460208301846131c9565b9392505050565b600060608201905081810360008301526133958186612ad5565b90506133a460208301856131c9565b6133b160408301846131c9565b949350505050565b600060208201905081810360008301526133d281612b3f565b9050919050565b600060208201905081810360008301526133f281612ba5565b9050919050565b6000602082019050818103600083015261341281612be5565b9050919050565b6000602082019050818103600083015261343281612c4b565b9050919050565b6000602082019050818103600083015261345281612c8b565b9050919050565b6000602082019050818103600083015261347281612cf1565b9050919050565b6000602082019050818103600083015261349281612d57565b9050919050565b600060208201905081810360008301526134b281612dbd565b9050919050565b600060208201905081810360008301526134d281612e23565b9050919050565b600060208201905081810360008301526134f281612e89565b9050919050565b6000602082019050818103600083015261351281612ec9565b9050919050565b6000602082019050818103600083015261353281612f2f565b9050919050565b6000602082019050818103600083015261355281612f95565b9050919050565b6000602082019050818103600083015261357281612ffb565b9050919050565b6000602082019050818103600083015261359281613061565b9050919050565b600060208201905081810360008301526135b2816130c7565b9050919050565b60006020820190506135ce60008301846131c9565b92915050565b60006040820190506135e960008301856131c9565b81810360208301526135fb8184612ad5565b90509392505050565b600060608201905061361960008301866131c9565b61362660208301856131c9565b81810360408301526136388184612ad5565b9050949350505050565b6000604051905081810181811067ffffffffffffffff8211171561366957613668613a13565b5b8060405250919050565b600067ffffffffffffffff82111561368e5761368d613a13565b5b601f19601f8301169050602081019050919050565b6000819050602082019050919050565b6000819050602082019050919050565b600081519050919050565b600081519050919050565b600081519050919050565b600081519050919050565b6000602082019050919050565b6000602082019050919050565b600082825260208201905092915050565b600082825260208201905092915050565b600082825260208201905092915050565b600082825260208201905092915050565b600082825260208201905092915050565b600081905092915050565b60006137748261388e565b915061377f8361388e565b9250827fffffffffffffffffffffffffffffffffffffffffffffffffffffffffffffffff038211156137b4576137b3613986565b5b828201905092915050565b60006137ca8261388e565b91506137d58361388e565b9250826137e5576137e46139b5565b5b828204905092915050565b60006137fb8261388e565b91506138068361388e565b92508282101561381957613818613986565b5b828203905092915050565b600061382f8261386e565b9050919050565b60008115159050919050565b60007fffffffff0000000000000000000000000000000000000000000000000000000082169050919050565b600073ffffffffffffffffffffffffffffffffffffffff82169050919050565b6000819050919050565b82818337600083830152505050565b60005b838110156138c55780820151818401526020810190506138aa565b838111156138d4576000848401525b50505050565b600060028204905060018216806138f257607f821691505b60208210811415613906576139056139e4565b5b50919050565b60006139178261388e565b91507fffffffffffffffffffffffffffffffffffffffffffffffffffffffffffffffff82141561394a57613949613986565b5b600182019050919050565b60006139608261388e565b915061396b8361388e565b92508261397b5761397a6139b5565b5b828206905092915050565b7f4e487b7100000000000000000000000000000000000000000000000000000000600052601160045260246000fd5b7f4e487b7100000000000000000000000000000000000000000000000000000000600052601260045260246000fd5b7f4e487b7100000000000000000000000000000000000000000000000000000000600052602260045260246000fd5b7f4e487b7100000000000000000000000000000000000000000000000000000000600052604160045260246000fd5b6000601f19601f8301169050919050565b613a5c81613824565b8114613a6757600080fd5b50565b613a7381613836565b8114613a7e57600080fd5b50565b613a8a81613842565b8114613a9557600080fd5b50565b613aa18161388e565b8114613aac57600080fd5b5056fe4d696e746564204e465420772f20746f6b656e496420257320616e6420636861726163746572496e646578202573a2646970667358221220d7a40bb087986c7589b5c6929897893e0d2432f41aff2071ee255fa7b811adb164736f6c63430008000033",
  "linkReferences": {},
  "deployedLinkReferences": {}
}