{
    "_format": "hh-sol-artifact-1",
    "contractName": "BackUpContract",
    "sourceName": "contracts/BackUpContract.sol",
    "abi": [
        {
            "inputs": [
                {
                    "internalType": "string[]",
                    "name": "characterURIs",
                    "type": "string[]"
                }
            ],
            "stateMutability": "nonpayable",
            "type": "constructor"
        },
        {
            "anonymous": false,
            "inputs": [
                {
                    "indexed": true,
                    "internalType": "address",
                    "name": "owner",
                    "type": "address"
                },
                {
                    "indexed": true,
                    "internalType": "address",
                    "name": "approved",
                    "type": "address"
                },
                {
                    "indexed": true,
                    "internalType": "uint256",
                    "name": "tokenId",
                    "type": "uint256"
                }
            ],
            "name": "Approval",
            "type": "event"
        },
        {
            "anonymous": false,
            "inputs": [
                {
                    "indexed": true,
                    "internalType": "address",
                    "name": "owner",
                    "type": "address"
                },
                {
                    "indexed": true,
                    "internalType": "address",
                    "name": "operator",
                    "type": "address"
                },
                {
                    "indexed": false,
                    "internalType": "bool",
                    "name": "approved",
                    "type": "bool"
                }
            ],
            "name": "ApprovalForAll",
            "type": "event"
        },
        {
            "anonymous": false,
            "inputs": [
                {
                    "indexed": false,
                    "internalType": "address",
                    "name": "sender",
                    "type": "address"
                },
                {
                    "indexed": false,
                    "internalType": "uint256",
                    "name": "tokenId",
                    "type": "uint256"
                },
                {
                    "indexed": false,
                    "internalType": "uint256",
                    "name": "characterIndex",
                    "type": "uint256"
                }
            ],
            "name": "CharacterNFTMinted",
            "type": "event"
        },
        {
            "anonymous": false,
            "inputs": [
                {
                    "indexed": true,
                    "internalType": "address",
                    "name": "from",
                    "type": "address"
                },
                {
                    "indexed": true,
                    "internalType": "address",
                    "name": "to",
                    "type": "address"
                },
                {
                    "indexed": true,
                    "internalType": "uint256",
                    "name": "tokenId",
                    "type": "uint256"
                }
            ],
            "name": "Transfer",
            "type": "event"
        },
        {
            "inputs": [
                {
                    "internalType": "address",
                    "name": "to",
                    "type": "address"
                },
                {
                    "internalType": "uint256",
                    "name": "tokenId",
                    "type": "uint256"
                }
            ],
            "name": "approve",
            "outputs": [],
            "stateMutability": "nonpayable",
            "type": "function"
        },
        {
            "inputs": [
                {
                    "internalType": "address",
                    "name": "owner",
                    "type": "address"
                }
            ],
            "name": "balanceOf",
            "outputs": [
                {
                    "internalType": "uint256",
                    "name": "",
                    "type": "uint256"
                }
            ],
            "stateMutability": "view",
            "type": "function"
        },
        {
            "inputs": [
                {
                    "internalType": "uint256",
                    "name": "_tokenId1",
                    "type": "uint256"
                },
                {
                    "internalType": "uint256",
                    "name": "_tokenId2",
                    "type": "uint256"
                }
            ],
            "name": "combineNFTs",
            "outputs": [],
            "stateMutability": "nonpayable",
            "type": "function"
        },
        {
            "inputs": [
                {
                    "internalType": "uint256",
                    "name": "tokenId",
                    "type": "uint256"
                }
            ],
            "name": "getApproved",
            "outputs": [
                {
                    "internalType": "address",
                    "name": "",
                    "type": "address"
                }
            ],
            "stateMutability": "view",
            "type": "function"
        },
        {
            "inputs": [],
            "name": "getDefaultCharacters",
            "outputs": [
                {
                    "components": [
                        {
                            "internalType": "uint256",
                            "name": "characterIndex",
                            "type": "uint256"
                        },
                        {
                            "internalType": "string",
                            "name": "characterURI",
                            "type": "string"
                        }
                    ],
                    "internalType": "struct BackUpContract.CharacterAttributes[]",
                    "name": "",
                    "type": "tuple[]"
                }
            ],
            "stateMutability": "view",
            "type": "function"
        },
        {
            "inputs": [],
            "name": "getUserNFTS",
            "outputs": [
                {
                    "components": [
                        {
                            "internalType": "uint256",
                            "name": "tokenId",
                            "type": "uint256"
                        },
                        {
                            "internalType": "uint256",
                            "name": "characterIndex",
                            "type": "uint256"
                        },
                        {
                            "internalType": "string",
                            "name": "characterURI",
                            "type": "string"
                        }
                    ],
                    "internalType": "struct BackUpContract.UserCharacterAttributes[]",
                    "name": "",
                    "type": "tuple[]"
                }
            ],
            "stateMutability": "view",
            "type": "function"
        },
        {
            "inputs": [
                {
                    "internalType": "address",
                    "name": "owner",
                    "type": "address"
                },
                {
                    "internalType": "address",
                    "name": "operator",
                    "type": "address"
                }
            ],
            "name": "isApprovedForAll",
            "outputs": [
                {
                    "internalType": "bool",
                    "name": "",
                    "type": "bool"
                }
            ],
            "stateMutability": "view",
            "type": "function"
        },
        {
            "inputs": [
                {
                    "internalType": "uint256",
                    "name": "_tokenId",
                    "type": "uint256"
                }
            ],
            "name": "isOwner",
            "outputs": [
                {
                    "internalType": "bool",
                    "name": "",
                    "type": "bool"
                }
            ],
            "stateMutability": "nonpayable",
            "type": "function"
        },
        {
            "inputs": [
                {
                    "internalType": "uint256",
                    "name": "_characterId",
                    "type": "uint256"
                }
            ],
            "name": "mintNFT",
            "outputs": [],
            "stateMutability": "nonpayable",
            "type": "function"
        },
        {
            "inputs": [],
            "name": "name",
            "outputs": [
                {
                    "internalType": "string",
                    "name": "",
                    "type": "string"
                }
            ],
            "stateMutability": "view",
            "type": "function"
        },
        {
            "inputs": [
                {
                    "internalType": "address",
                    "name": "",
                    "type": "address"
                },
                {
                    "internalType": "uint256",
                    "name": "",
                    "type": "uint256"
                }
            ],
            "name": "nftHolders",
            "outputs": [
                {
                    "internalType": "uint256",
                    "name": "tokenId",
                    "type": "uint256"
                },
                {
                    "internalType": "uint256",
                    "name": "characterIndex",
                    "type": "uint256"
                },
                {
                    "internalType": "string",
                    "name": "characterURI",
                    "type": "string"
                }
            ],
            "stateMutability": "view",
            "type": "function"
        },
        {
            "inputs": [
                {
                    "internalType": "uint256",
                    "name": "",
                    "type": "uint256"
                }
            ],
            "name": "nftTokenIdToAttributes",
            "outputs": [
                {
                    "internalType": "uint256",
                    "name": "characterIndex",
                    "type": "uint256"
                },
                {
                    "internalType": "string",
                    "name": "characterURI",
                    "type": "string"
                }
            ],
            "stateMutability": "view",
            "type": "function"
        },
        {
            "inputs": [
                {
                    "internalType": "uint256",
                    "name": "tokenId",
                    "type": "uint256"
                }
            ],
            "name": "ownerOf",
            "outputs": [
                {
                    "internalType": "address",
                    "name": "",
                    "type": "address"
                }
            ],
            "stateMutability": "view",
            "type": "function"
        },
        {
            "inputs": [
                {
                    "internalType": "address",
                    "name": "from",
                    "type": "address"
                },
                {
                    "internalType": "address",
                    "name": "to",
                    "type": "address"
                },
                {
                    "internalType": "uint256",
                    "name": "tokenId",
                    "type": "uint256"
                }
            ],
            "name": "safeTransferFrom",
            "outputs": [],
            "stateMutability": "nonpayable",
            "type": "function"
        },
        {
            "inputs": [
                {
                    "internalType": "address",
                    "name": "from",
                    "type": "address"
                },
                {
                    "internalType": "address",
                    "name": "to",
                    "type": "address"
                },
                {
                    "internalType": "uint256",
                    "name": "tokenId",
                    "type": "uint256"
                },
                {
                    "internalType": "bytes",
                    "name": "_data",
                    "type": "bytes"
                }
            ],
            "name": "safeTransferFrom",
            "outputs": [],
            "stateMutability": "nonpayable",
            "type": "function"
        },
        {
            "inputs": [
                {
                    "internalType": "address",
                    "name": "operator",
                    "type": "address"
                },
                {
                    "internalType": "bool",
                    "name": "approved",
                    "type": "bool"
                }
            ],
            "name": "setApprovalForAll",
            "outputs": [],
            "stateMutability": "nonpayable",
            "type": "function"
        },
        {
            "inputs": [
                {
                    "internalType": "bytes4",
                    "name": "interfaceId",
                    "type": "bytes4"
                }
            ],
            "name": "supportsInterface",
            "outputs": [
                {
                    "internalType": "bool",
                    "name": "",
                    "type": "bool"
                }
            ],
            "stateMutability": "view",
            "type": "function"
        },
        {
            "inputs": [],
            "name": "symbol",
            "outputs": [
                {
                    "internalType": "string",
                    "name": "",
                    "type": "string"
                }
            ],
            "stateMutability": "view",
            "type": "function"
        },
        {
            "inputs": [
                {
                    "internalType": "uint256",
                    "name": "tokenId",
                    "type": "uint256"
                }
            ],
            "name": "tokenURI",
            "outputs": [
                {
                    "internalType": "string",
                    "name": "",
                    "type": "string"
                }
            ],
            "stateMutability": "view",
            "type": "function"
        },
        {
            "inputs": [
                {
                    "internalType": "address",
                    "name": "from",
                    "type": "address"
                },
                {
                    "internalType": "address",
                    "name": "to",
                    "type": "address"
                },
                {
                    "internalType": "uint256",
                    "name": "tokenId",
                    "type": "uint256"
                }
            ],
            "name": "transferFrom",
            "outputs": [],
            "stateMutability": "nonpayable",
            "type": "function"
        }
    ],
    "bytecode": "0x60806040523480156200001157600080fd5b506040516200476f3803806200476f8339818101604052810190620000379190620004ab565b6040518060400160405280600a81526020017f416c6368656d69737473000000000000000000000000000000000000000000008152506040518060400160405280600281526020017f414c0000000000000000000000000000000000000000000000000000000000008152508160009080519060200190620000bb929190620002f7565b508060019080519060200190620000d4929190620002f7565b50505060005b8151811015620001f3576008604051806040016040528083815260200184848151811062000131577f4e487b7100000000000000000000000000000000000000000000000000000000600052603260045260246000fd5b602002602001015181525090806001815401808255809150506001900390600052602060002090600202016000909190919091506000820151816000015560208201518160010190805190602001906200018d929190620002f7565b505050620001dc6040518060400160405280601e81526020017f446f6e6520696e697469616c697a696e67206368617261637465722025730000815250826200021260201b6200182b1760201c565b600181620001eb919062000628565b9050620000da565b506200020b6007620002b860201b620018c71760201c565b5062000799565b620002b482826040516024016200022b92919062000542565b6040516020818303038152906040527f9710a9d0000000000000000000000000000000000000000000000000000000007bffffffffffffffffffffffffffffffffffffffffffffffffffffffff19166020820180517bffffffffffffffffffffffffffffffffffffffffffffffffffffffff8381831617835250505050620002ce60201b60201c565b5050565b6001816000016000828254019250508190555050565b60008151905060006a636f6e736f6c652e6c6f679050602083016000808483855afa5050505050565b8280546200030590620006c5565b90600052602060002090601f01602090048101928262000329576000855562000375565b82601f106200034457805160ff191683800117855562000375565b8280016001018555821562000375579182015b828111156200037457825182559160200191906001019062000357565b5b50905062000384919062000388565b5090565b5b80821115620003a357600081600090555060010162000389565b5090565b6000620003be620003b884620005aa565b62000576565b9050808382526020820190508260005b85811015620004025781518501620003e788826200047e565b845260208401935060208301925050600181019050620003ce565b5050509392505050565b6000620004236200041d84620005d9565b62000576565b9050828152602081018484840111156200043c57600080fd5b620004498482856200068f565b509392505050565b600082601f8301126200046357600080fd5b815162000475848260208601620003a7565b91505092915050565b600082601f8301126200049057600080fd5b8151620004a28482602086016200040c565b91505092915050565b600060208284031215620004be57600080fd5b600082015167ffffffffffffffff811115620004d957600080fd5b620004e78482850162000451565b91505092915050565b6000620004fd826200060c565b62000509818562000617565b93506200051b8185602086016200068f565b620005268162000788565b840191505092915050565b6200053c8162000685565b82525050565b600060408201905081810360008301526200055e8185620004f0565b90506200056f602083018462000531565b9392505050565b6000604051905081810181811067ffffffffffffffff82111715620005a0576200059f62000759565b5b8060405250919050565b600067ffffffffffffffff821115620005c857620005c762000759565b5b602082029050602081019050919050565b600067ffffffffffffffff821115620005f757620005f662000759565b5b601f19601f8301169050602081019050919050565b600081519050919050565b600082825260208201905092915050565b6000620006358262000685565b9150620006428362000685565b9250827fffffffffffffffffffffffffffffffffffffffffffffffffffffffffffffffff038211156200067a5762000679620006fb565b5b828201905092915050565b6000819050919050565b60005b83811015620006af57808201518184015260208101905062000692565b83811115620006bf576000848401525b50505050565b60006002820490506001821680620006de57607f821691505b60208210811415620006f557620006f46200072a565b5b50919050565b7f4e487b7100000000000000000000000000000000000000000000000000000000600052601160045260246000fd5b7f4e487b7100000000000000000000000000000000000000000000000000000000600052602260045260246000fd5b7f4e487b7100000000000000000000000000000000000000000000000000000000600052604160045260246000fd5b6000601f19601f8301169050919050565b613fc680620007a96000396000f3fe608060405234801561001057600080fd5b506004361061012c5760003560e01c806374bce80a116100ad578063a22cb46511610071578063a22cb4651461036c578063b88d4fde14610388578063c87b56dd146103a4578063d3c67299146103d4578063e985e9c5146103f05761012c565b806374bce80a146102b1578063775bb50e146102cf578063926427441461030157806395d89b411461031d5780639ddcf4fa1461033b5761012c565b806323b872dd116100f457806323b872dd146101e957806339c7639c1461020557806342842e0e146102355780636352211e1461025157806370a08231146102815761012c565b806301ffc9a71461013157806306fdde0314610161578063081812fc1461017f57806308e34145146101af578063095ea7b3146101cd575b600080fd5b61014b60048036038101906101469190612d2f565b610420565b6040516101589190613791565b60405180910390f35b610169610502565b60405161017691906137ac565b60405180910390f35b61019960048036038101906101949190612d81565b610594565b6040516101a691906136af565b60405180910390f35b6101b7610619565b6040516101c4919061376f565b60405180910390f35b6101e760048036038101906101e29190612cf3565b6107b2565b005b61020360048036038101906101fe9190612bed565b6108ca565b005b61021f600480360381019061021a9190612d81565b61092a565b60405161022c9190613791565b60405180910390f35b61024f600480360381019061024a9190612bed565b610c6d565b005b61026b60048036038101906102669190612d81565b610c8d565b60405161027891906136af565b60405180910390f35b61029b60048036038101906102969190612b88565b610d3f565b6040516102a89190613a6c565b60405180910390f35b6102b9610df7565b6040516102c6919061374d565b60405180910390f35b6102e960048036038101906102e49190612cf3565b610ef2565b6040516102f893929190613ab7565b60405180910390f35b61031b60048036038101906103169190612d81565b610fc1565b005b6103256113d6565b60405161033291906137ac565b60405180910390f35b61035560048036038101906103509190612d81565b611468565b604051610363929190613a87565b60405180910390f35b61038660048036038101906103819190612cb7565b611514565b005b6103a2600480360381019061039d9190612c3c565b61152a565b005b6103be60048036038101906103b99190612d81565b61158c565b6040516103cb91906137ac565b60405180910390f35b6103ee60048036038101906103e99190612daa565b6116de565b005b61040a60048036038101906104059190612bb1565b611797565b6040516104179190613791565b60405180910390f35b60007f80ac58cd000000000000000000000000000000000000000000000000000000007bffffffffffffffffffffffffffffffffffffffffffffffffffffffff1916827bffffffffffffffffffffffffffffffffffffffffffffffffffffffff191614806104eb57507f5b5e139f000000000000000000000000000000000000000000000000000000007bffffffffffffffffffffffffffffffffffffffffffffffffffffffff1916827bffffffffffffffffffffffffffffffffffffffffffffffffffffffff1916145b806104fb57506104fa826118dd565b5b9050919050565b60606000805461051190613d8d565b80601f016020809104026020016040519081016040528092919081815260200182805461053d90613d8d565b801561058a5780601f1061055f5761010080835404028352916020019161058a565b820191906000526020600020905b81548152906001019060200180831161056d57829003601f168201915b5050505050905090565b600061059f82611947565b6105de576040517f08c379a00000000000000000000000000000000000000000000000000000000081526004016105d5906139cc565b60405180910390fd5b6004600083815260200190815260200160002060009054906101000a900473ffffffffffffffffffffffffffffffffffffffff169050919050565b60606000600a60003373ffffffffffffffffffffffffffffffffffffffff1673ffffffffffffffffffffffffffffffffffffffff1681526020019081526020016000208054905011156107a857600a60003373ffffffffffffffffffffffffffffffffffffffff1673ffffffffffffffffffffffffffffffffffffffff168152602001908152602001600020805480602002602001604051908101604052809291908181526020016000905b8282101561079d5783829060005260206000209060030201604051806060016040529081600082015481526020016001820154815260200160028201805461070c90613d8d565b80601f016020809104026020016040519081016040528092919081815260200182805461073890613d8d565b80156107855780601f1061075a57610100808354040283529160200191610785565b820191906000526020600020905b81548152906001019060200180831161076857829003601f168201915b505050505081525050815260200190600101906106c5565b5050505090506107af565b6060809150505b90565b60006107bd82610c8d565b90508073ffffffffffffffffffffffffffffffffffffffff168373ffffffffffffffffffffffffffffffffffffffff16141561082e576040517f08c379a000000000000000000000000000000000000000000000000000000000815260040161082590613a2c565b60405180910390fd5b8073ffffffffffffffffffffffffffffffffffffffff1661084d6119b3565b73ffffffffffffffffffffffffffffffffffffffff16148061087c575061087b816108766119b3565b611797565b5b6108bb576040517f08c379a00000000000000000000000000000000000000000000000000000000081526004016108b29061390c565b60405180910390fd5b6108c583836119bb565b505050565b6108db6108d56119b3565b82611a74565b61091a576040517f08c379a000000000000000000000000000000000000000000000000000000000815260040161091190613a4c565b60405180910390fd5b610925838383611b52565b505050565b6000805b600a60003373ffffffffffffffffffffffffffffffffffffffff1673ffffffffffffffffffffffffffffffffffffffff16815260200190815260200160002080549050811015610c625782600a60003373ffffffffffffffffffffffffffffffffffffffff1673ffffffffffffffffffffffffffffffffffffffff16815260200190815260200160002082815481106109f0577f4e487b7100000000000000000000000000000000000000000000000000000000600052603260045260246000fd5b9060005260206000209060030201600001541415610c4f57600a60003373ffffffffffffffffffffffffffffffffffffffff1673ffffffffffffffffffffffffffffffffffffffff1681526020019081526020016000206001600a60003373ffffffffffffffffffffffffffffffffffffffff1673ffffffffffffffffffffffffffffffffffffffff16815260200190815260200160002080549050610a969190613ca3565b81548110610acd577f4e487b7100000000000000000000000000000000000000000000000000000000600052603260045260246000fd5b9060005260206000209060030201600a60003373ffffffffffffffffffffffffffffffffffffffff1673ffffffffffffffffffffffffffffffffffffffff1681526020019081526020016000208281548110610b52577f4e487b7100000000000000000000000000000000000000000000000000000000600052603260045260246000fd5b906000526020600020906003020160008201548160000155600182015481600101556002820181600201908054610b8890613d8d565b610b93929190612947565b50905050600a60003373ffffffffffffffffffffffffffffffffffffffff1673ffffffffffffffffffffffffffffffffffffffff168152602001908152602001600020805480610c0c577f4e487b7100000000000000000000000000000000000000000000000000000000600052603160045260246000fd5b60019003818190600052602060002090600302016000808201600090556001820160009055600282016000610c4191906129d4565b505090556001915050610c68565b8080610c5a90613dbf565b91505061092e565b50600090505b919050565b610c888383836040518060200160405280600081525061152a565b505050565b6000806002600084815260200190815260200160002060009054906101000a900473ffffffffffffffffffffffffffffffffffffffff169050600073ffffffffffffffffffffffffffffffffffffffff168173ffffffffffffffffffffffffffffffffffffffff161415610d36576040517f08c379a0000000000000000000000000000000000000000000000000000000008152600401610d2d9061394c565b60405180910390fd5b80915050919050565b60008073ffffffffffffffffffffffffffffffffffffffff168273ffffffffffffffffffffffffffffffffffffffff161415610db0576040517f08c379a0000000000000000000000000000000000000000000000000000000008152600401610da79061392c565b60405180910390fd5b600360008373ffffffffffffffffffffffffffffffffffffffff1673ffffffffffffffffffffffffffffffffffffffff168152602001908152602001600020549050919050565b60606008805480602002602001604051908101604052809291908181526020016000905b82821015610ee9578382906000526020600020906002020160405180604001604052908160008201548152602001600182018054610e5890613d8d565b80601f0160208091040260200160405190810160405280929190818152602001828054610e8490613d8d565b8015610ed15780601f10610ea657610100808354040283529160200191610ed1565b820191906000526020600020905b815481529060010190602001808311610eb457829003601f168201915b50505050508152505081526020019060010190610e1b565b50505050905090565b600a6020528160005260406000208181548110610f0e57600080fd5b906000526020600020906003020160009150915050806000015490806001015490806002018054610f3e90613d8d565b80601f0160208091040260200160405190810160405280929190818152602001828054610f6a90613d8d565b8015610fb75780601f10610f8c57610100808354040283529160200191610fb7565b820191906000526020600020905b815481529060010190602001808311610f9a57829003601f168201915b5050505050905083565b6000610fcd6007611dae565b9050610fd93382611dbc565b604051806040016040528083815260200160088481548110611024577f4e487b7100000000000000000000000000000000000000000000000000000000600052603260045260246000fd5b9060005260206000209060020201600101805461104090613d8d565b80601f016020809104026020016040519081016040528092919081815260200182805461106c90613d8d565b80156110b95780601f1061108e576101008083540402835291602001916110b9565b820191906000526020600020905b81548152906001019060200180831161109c57829003601f168201915b5050505050815250600960008381526020019081526020016000206000820151816000015560208201518160010190805190602001906110fa929190612a14565b5090505060006008838154811061113a577f4e487b7100000000000000000000000000000000000000000000000000000000600052603260045260246000fd5b9060005260206000209060020201600101805461115690613d8d565b80601f016020809104026020016040519081016040528092919081815260200182805461118290613d8d565b80156111cf5780601f106111a4576101008083540402835291602001916111cf565b820191906000526020600020905b8154815290600101906020018083116111b257829003601f168201915b505050505090506111e08282611dda565b6112036040518060600160405280602e8152602001613f63602e91398385611e4e565b600a60003373ffffffffffffffffffffffffffffffffffffffff1673ffffffffffffffffffffffffffffffffffffffff168152602001908152602001600020604051806060016040528084815260200185815260200160088681548110611293577f4e487b7100000000000000000000000000000000000000000000000000000000600052603260045260246000fd5b906000526020600020906002020160010180546112af90613d8d565b80601f01602080910402602001604051908101604052809291908181526020018280546112db90613d8d565b80156113285780601f106112fd57610100808354040283529160200191611328565b820191906000526020600020905b81548152906001019060200180831161130b57829003601f168201915b5050505050815250908060018154018082558091505060019003906000526020600020906003020160009091909190915060008201518160000155602082015181600101556040820151816002019080519060200190611389929190612a14565b50505061139660076118c7565b7f4bc303fd457a97b4691b9af582ce71868a3d258638c8d4f8c60988a0f0bfb8cd3383856040516113c993929190613716565b60405180910390a1505050565b6060600180546113e590613d8d565b80601f016020809104026020016040519081016040528092919081815260200182805461141190613d8d565b801561145e5780601f106114335761010080835404028352916020019161145e565b820191906000526020600020905b81548152906001019060200180831161144157829003601f168201915b5050505050905090565b600960205280600052604060002060009150905080600001549080600101805461149190613d8d565b80601f01602080910402602001604051908101604052809291908181526020018280546114bd90613d8d565b801561150a5780601f106114df5761010080835404028352916020019161150a565b820191906000526020600020905b8154815290600101906020018083116114ed57829003601f168201915b5050505050905082565b61152661151f6119b3565b8383611eed565b5050565b61153b6115356119b3565b83611a74565b61157a576040517f08c379a000000000000000000000000000000000000000000000000000000000815260040161157190613a4c565b60405180910390fd5b6115868484848461205a565b50505050565b606061159782611947565b6115d6576040517f08c379a00000000000000000000000000000000000000000000000000000000081526004016115cd906139ac565b60405180910390fd5b60006006600084815260200190815260200160002080546115f690613d8d565b80601f016020809104026020016040519081016040528092919081815260200182805461162290613d8d565b801561166f5780601f106116445761010080835404028352916020019161166f565b820191906000526020600020905b81548152906001019060200180831161165257829003601f168201915b5050505050905060006116806120b6565b90506000815114156116965781925050506116d9565b6000825111156116cb5780826040516020016116b392919061368b565b604051602081830303815290604052925050506116d9565b6116d4846120cd565b925050505b919050565b6116e78261092a565b80156116f857506116f78161092a565b5b156117935761173c6040518060400160405280601b81526020017f257320697320746865206f776e6572206f6620746865204e465473000000000081525033612174565b600061174783612210565b9050600061175483612210565b90506117613330866108ca565b61176c3330856108ca565b61179060088054905082846117819190613c1c565b61178b9190613e08565b610fc1565b50505b5050565b6000600560008473ffffffffffffffffffffffffffffffffffffffff1673ffffffffffffffffffffffffffffffffffffffff16815260200190815260200160002060008373ffffffffffffffffffffffffffffffffffffffff1673ffffffffffffffffffffffffffffffffffffffff16815260200190815260200160002060009054906101000a900460ff16905092915050565b6118c382826040516024016118419291906137fe565b6040516020818303038152906040527f9710a9d0000000000000000000000000000000000000000000000000000000007bffffffffffffffffffffffffffffffffffffffffffffffffffffffff19166020820180517bffffffffffffffffffffffffffffffffffffffffffffffffffffffff8381831617835250505050612399565b5050565b6001816000016000828254019250508190555050565b60007f01ffc9a7000000000000000000000000000000000000000000000000000000007bffffffffffffffffffffffffffffffffffffffffffffffffffffffff1916827bffffffffffffffffffffffffffffffffffffffffffffffffffffffff1916149050919050565b60008073ffffffffffffffffffffffffffffffffffffffff166002600084815260200190815260200160002060009054906101000a900473ffffffffffffffffffffffffffffffffffffffff1673ffffffffffffffffffffffffffffffffffffffff1614159050919050565b600033905090565b816004600083815260200190815260200160002060006101000a81548173ffffffffffffffffffffffffffffffffffffffff021916908373ffffffffffffffffffffffffffffffffffffffff160217905550808273ffffffffffffffffffffffffffffffffffffffff16611a2e83610c8d565b73ffffffffffffffffffffffffffffffffffffffff167f8c5be1e5ebec7d5bd14f71427d1e84f3dd0314c0f7b2291e5b200ac8c7c3b92560405160405180910390a45050565b6000611a7f82611947565b611abe576040517f08c379a0000000000000000000000000000000000000000000000000000000008152600401611ab5906138ec565b60405180910390fd5b6000611ac983610c8d565b90508073ffffffffffffffffffffffffffffffffffffffff168473ffffffffffffffffffffffffffffffffffffffff161480611b3857508373ffffffffffffffffffffffffffffffffffffffff16611b2084610594565b73ffffffffffffffffffffffffffffffffffffffff16145b80611b495750611b488185611797565b5b91505092915050565b8273ffffffffffffffffffffffffffffffffffffffff16611b7282610c8d565b73ffffffffffffffffffffffffffffffffffffffff1614611bc8576040517f08c379a0000000000000000000000000000000000000000000000000000000008152600401611bbf906139ec565b60405180910390fd5b600073ffffffffffffffffffffffffffffffffffffffff168273ffffffffffffffffffffffffffffffffffffffff161415611c38576040517f08c379a0000000000000000000000000000000000000000000000000000000008152600401611c2f906138ac565b60405180910390fd5b611c438383836123c2565b611c4e6000826119bb565b6001600360008573ffffffffffffffffffffffffffffffffffffffff1673ffffffffffffffffffffffffffffffffffffffff1681526020019081526020016000206000828254611c9e9190613ca3565b925050819055506001600360008473ffffffffffffffffffffffffffffffffffffffff1673ffffffffffffffffffffffffffffffffffffffff1681526020019081526020016000206000828254611cf59190613c1c565b92505081905550816002600083815260200190815260200160002060006101000a81548173ffffffffffffffffffffffffffffffffffffffff021916908373ffffffffffffffffffffffffffffffffffffffff160217905550808273ffffffffffffffffffffffffffffffffffffffff168473ffffffffffffffffffffffffffffffffffffffff167fddf252ad1be2c89b69c2b068fc378daa952ba7f163c4a11628f55a4df523b3ef60405160405180910390a4505050565b600081600001549050919050565b611dd68282604051806020016040528060008152506123c7565b5050565b611de382611947565b611e22576040517f08c379a0000000000000000000000000000000000000000000000000000000008152600401611e199061396c565b60405180910390fd5b80600660008481526020019081526020016000209080519060200190611e49929190612a14565b505050565b611ee8838383604051602401611e669392919061382e565b6040516020818303038152906040527f969cdd03000000000000000000000000000000000000000000000000000000007bffffffffffffffffffffffffffffffffffffffffffffffffffffffff19166020820180517bffffffffffffffffffffffffffffffffffffffffffffffffffffffff8381831617835250505050612399565b505050565b8173ffffffffffffffffffffffffffffffffffffffff168373ffffffffffffffffffffffffffffffffffffffff161415611f5c576040517f08c379a0000000000000000000000000000000000000000000000000000000008152600401611f53906138cc565b60405180910390fd5b80600560008573ffffffffffffffffffffffffffffffffffffffff1673ffffffffffffffffffffffffffffffffffffffff16815260200190815260200160002060008473ffffffffffffffffffffffffffffffffffffffff1673ffffffffffffffffffffffffffffffffffffffff16815260200190815260200160002060006101000a81548160ff0219169083151502179055508173ffffffffffffffffffffffffffffffffffffffff168373ffffffffffffffffffffffffffffffffffffffff167f17307eab39ab6107e8899845ad3d59bd9653f200f220920489ca2b5937696c318360405161204d9190613791565b60405180910390a3505050565b612065848484611b52565b61207184848484612422565b6120b0576040517f08c379a00000000000000000000000000000000000000000000000000000000081526004016120a79061386c565b60405180910390fd5b50505050565b606060405180602001604052806000815250905090565b60606120d882611947565b612117576040517f08c379a000000000000000000000000000000000000000000000000000000000815260040161210e90613a0c565b60405180910390fd5b60006121216120b6565b90506000815111612141576040518060200160405280600081525061216c565b8061214b846125b9565b60405160200161215c92919061368b565b6040516020818303038152906040525b915050919050565b61220c828260405160240161218a9291906137ce565b6040516020818303038152906040527f319af333000000000000000000000000000000000000000000000000000000007bffffffffffffffffffffffffffffffffffffffffffffffffffffffff19166020820180517bffffffffffffffffffffffffffffffffffffffffffffffffffffffff8381831617835250505050612399565b5050565b6000805b600a60003373ffffffffffffffffffffffffffffffffffffffff1673ffffffffffffffffffffffffffffffffffffffff168152602001908152602001600020805490508110156123925782600a60003373ffffffffffffffffffffffffffffffffffffffff1673ffffffffffffffffffffffffffffffffffffffff16815260200190815260200160002082815481106122d6577f4e487b7100000000000000000000000000000000000000000000000000000000600052603260045260246000fd5b906000526020600020906003020160000154141561237f57600a60003373ffffffffffffffffffffffffffffffffffffffff1673ffffffffffffffffffffffffffffffffffffffff1681526020019081526020016000208181548110612365577f4e487b7100000000000000000000000000000000000000000000000000000000600052603260045260246000fd5b906000526020600020906003020160010154915050612394565b808061238a90613dbf565b915050612214565b505b919050565b60008151905060006a636f6e736f6c652e6c6f679050602083016000808483855afa5050505050565b505050565b6123d18383612766565b6123de6000848484612422565b61241d576040517f08c379a00000000000000000000000000000000000000000000000000000000081526004016124149061386c565b60405180910390fd5b505050565b60006124438473ffffffffffffffffffffffffffffffffffffffff16612934565b156125ac578373ffffffffffffffffffffffffffffffffffffffff1663150b7a0261246c6119b3565b8786866040518563ffffffff1660e01b815260040161248e94939291906136ca565b602060405180830381600087803b1580156124a857600080fd5b505af19250505080156124d957506040513d601f19601f820116820180604052508101906124d69190612d58565b60015b61255c573d8060008114612509576040519150601f19603f3d011682016040523d82523d6000602084013e61250e565b606091505b50600081511415612554576040517f08c379a000000000000000000000000000000000000000000000000000000000815260040161254b9061386c565b60405180910390fd5b805181602001fd5b63150b7a0260e01b7bffffffffffffffffffffffffffffffffffffffffffffffffffffffff1916817bffffffffffffffffffffffffffffffffffffffffffffffffffffffff1916149150506125b1565b600190505b949350505050565b60606000821415612601576040518060400160405280600181526020017f30000000000000000000000000000000000000000000000000000000000000008152509050612761565b600082905060005b6000821461263357808061261c90613dbf565b915050600a8261262c9190613c72565b9150612609565b60008167ffffffffffffffff811115612675577f4e487b7100000000000000000000000000000000000000000000000000000000600052604160045260246000fd5b6040519080825280601f01601f1916602001820160405280156126a75781602001600182028036833780820191505090505b5090505b6000851461275a576001826126c09190613ca3565b9150600a856126cf9190613e08565b60306126db9190613c1c565b60f81b818381518110612717577f4e487b7100000000000000000000000000000000000000000000000000000000600052603260045260246000fd5b60200101907effffffffffffffffffffffffffffffffffffffffffffffffffffffffffffff1916908160001a905350600a856127539190613c72565b94506126ab565b8093505050505b919050565b600073ffffffffffffffffffffffffffffffffffffffff168273ffffffffffffffffffffffffffffffffffffffff1614156127d6576040517f08c379a00000000000000000000000000000000000000000000000000000000081526004016127cd9061398c565b60405180910390fd5b6127df81611947565b1561281f576040517f08c379a00000000000000000000000000000000000000000000000000000000081526004016128169061388c565b60405180910390fd5b61282b600083836123c2565b6001600360008473ffffffffffffffffffffffffffffffffffffffff1673ffffffffffffffffffffffffffffffffffffffff168152602001908152602001600020600082825461287b9190613c1c565b92505081905550816002600083815260200190815260200160002060006101000a81548173ffffffffffffffffffffffffffffffffffffffff021916908373ffffffffffffffffffffffffffffffffffffffff160217905550808273ffffffffffffffffffffffffffffffffffffffff16600073ffffffffffffffffffffffffffffffffffffffff167fddf252ad1be2c89b69c2b068fc378daa952ba7f163c4a11628f55a4df523b3ef60405160405180910390a45050565b600080823b905060008111915050919050565b82805461295390613d8d565b90600052602060002090601f01602090048101928261297557600085556129c3565b82601f1061298657805485556129c3565b828001600101855582156129c357600052602060002091601f016020900482015b828111156129c25782548255916001019190600101906129a7565b5b5090506129d09190612a9a565b5090565b5080546129e090613d8d565b6000825580601f106129f25750612a11565b601f016020900490600052602060002090810190612a109190612a9a565b5b50565b828054612a2090613d8d565b90600052602060002090601f016020900481019282612a425760008555612a89565b82601f10612a5b57805160ff1916838001178555612a89565b82800160010185558215612a89579182015b82811115612a88578251825591602001919060010190612a6d565b5b509050612a969190612a9a565b5090565b5b80821115612ab3576000816000905550600101612a9b565b5090565b6000612aca612ac584613b26565b613af5565b905082815260208101848484011115612ae257600080fd5b612aed848285613d4b565b509392505050565b600081359050612b0481613f06565b92915050565b600081359050612b1981613f1d565b92915050565b600081359050612b2e81613f34565b92915050565b600081519050612b4381613f34565b92915050565b600082601f830112612b5a57600080fd5b8135612b6a848260208601612ab7565b91505092915050565b600081359050612b8281613f4b565b92915050565b600060208284031215612b9a57600080fd5b6000612ba884828501612af5565b91505092915050565b60008060408385031215612bc457600080fd5b6000612bd285828601612af5565b9250506020612be385828601612af5565b9150509250929050565b600080600060608486031215612c0257600080fd5b6000612c1086828701612af5565b9350506020612c2186828701612af5565b9250506040612c3286828701612b73565b9150509250925092565b60008060008060808587031215612c5257600080fd5b6000612c6087828801612af5565b9450506020612c7187828801612af5565b9350506040612c8287828801612b73565b925050606085013567ffffffffffffffff811115612c9f57600080fd5b612cab87828801612b49565b91505092959194509250565b60008060408385031215612cca57600080fd5b6000612cd885828601612af5565b9250506020612ce985828601612b0a565b9150509250929050565b60008060408385031215612d0657600080fd5b6000612d1485828601612af5565b9250506020612d2585828601612b73565b9150509250929050565b600060208284031215612d4157600080fd5b6000612d4f84828501612b1f565b91505092915050565b600060208284031215612d6a57600080fd5b6000612d7884828501612b34565b91505092915050565b600060208284031215612d9357600080fd5b6000612da184828501612b73565b91505092915050565b60008060408385031215612dbd57600080fd5b6000612dcb85828601612b73565b9250506020612ddc85828601612b73565b9150509250929050565b6000612df283836135e0565b905092915050565b6000612e06838361361d565b905092915050565b612e1781613cd7565b82525050565b6000612e2882613b76565b612e328185613bbc565b935083602082028501612e4485613b56565b8060005b85811015612e805784840389528151612e618582612de6565b9450612e6c83613ba2565b925060208a01995050600181019050612e48565b50829750879550505050505092915050565b6000612e9d82613b81565b612ea78185613bcd565b935083602082028501612eb985613b66565b8060005b85811015612ef55784840389528151612ed68582612dfa565b9450612ee183613baf565b925060208a01995050600181019050612ebd565b50829750879550505050505092915050565b612f1081613ce9565b82525050565b6000612f2182613b8c565b612f2b8185613bde565b9350612f3b818560208601613d5a565b612f4481613ef5565b840191505092915050565b6000612f5a82613b97565b612f648185613bef565b9350612f74818560208601613d5a565b612f7d81613ef5565b840191505092915050565b6000612f9382613b97565b612f9d8185613c00565b9350612fad818560208601613d5a565b612fb681613ef5565b840191505092915050565b6000612fcc82613b97565b612fd68185613c11565b9350612fe6818560208601613d5a565b80840191505092915050565b6000612fff603283613c00565b91507f4552433732313a207472616e7366657220746f206e6f6e20455243373231526560008301527f63656976657220696d706c656d656e74657200000000000000000000000000006020830152604082019050919050565b6000613065601c83613c00565b91507f4552433732313a20746f6b656e20616c7265616479206d696e746564000000006000830152602082019050919050565b60006130a5602483613c00565b91507f4552433732313a207472616e7366657220746f20746865207a65726f2061646460008301527f72657373000000000000000000000000000000000000000000000000000000006020830152604082019050919050565b600061310b601983613c00565b91507f4552433732313a20617070726f766520746f2063616c6c6572000000000000006000830152602082019050919050565b600061314b602c83613c00565b91507f4552433732313a206f70657261746f7220717565727920666f72206e6f6e657860008301527f697374656e7420746f6b656e00000000000000000000000000000000000000006020830152604082019050919050565b60006131b1603883613c00565b91507f4552433732313a20617070726f76652063616c6c6572206973206e6f74206f7760008301527f6e6572206e6f7220617070726f76656420666f7220616c6c00000000000000006020830152604082019050919050565b6000613217602a83613c00565b91507f4552433732313a2062616c616e636520717565727920666f7220746865207a6560008301527f726f2061646472657373000000000000000000000000000000000000000000006020830152604082019050919050565b600061327d602983613c00565b91507f4552433732313a206f776e657220717565727920666f72206e6f6e657869737460008301527f656e7420746f6b656e00000000000000000000000000000000000000000000006020830152604082019050919050565b60006132e3602e83613c00565b91507f45524337323155524953746f726167653a2055524920736574206f66206e6f6e60008301527f6578697374656e7420746f6b656e0000000000000000000000000000000000006020830152604082019050919050565b6000613349602083613c00565b91507f4552433732313a206d696e7420746f20746865207a65726f20616464726573736000830152602082019050919050565b6000613389603183613c00565b91507f45524337323155524953746f726167653a2055524920717565727920666f722060008301527f6e6f6e6578697374656e7420746f6b656e0000000000000000000000000000006020830152604082019050919050565b60006133ef602c83613c00565b91507f4552433732313a20617070726f76656420717565727920666f72206e6f6e657860008301527f697374656e7420746f6b656e00000000000000000000000000000000000000006020830152604082019050919050565b6000613455602983613c00565b91507f4552433732313a207472616e73666572206f6620746f6b656e2074686174206960008301527f73206e6f74206f776e00000000000000000000000000000000000000000000006020830152604082019050919050565b60006134bb602f83613c00565b91507f4552433732314d657461646174613a2055524920717565727920666f72206e6f60008301527f6e6578697374656e7420746f6b656e00000000000000000000000000000000006020830152604082019050919050565b6000613521602183613c00565b91507f4552433732313a20617070726f76616c20746f2063757272656e74206f776e6560008301527f72000000000000000000000000000000000000000000000000000000000000006020830152604082019050919050565b6000613587603183613c00565b91507f4552433732313a207472616e736665722063616c6c6572206973206e6f74206f60008301527f776e6572206e6f7220617070726f7665640000000000000000000000000000006020830152604082019050919050565b60006040830160008301516135f8600086018261366d565b50602083015184820360208601526136108282612f4f565b9150508091505092915050565b6000606083016000830151613635600086018261366d565b506020830151613648602086018261366d565b50604083015184820360408601526136608282612f4f565b9150508091505092915050565b61367681613d41565b82525050565b61368581613d41565b82525050565b60006136978285612fc1565b91506136a38284612fc1565b91508190509392505050565b60006020820190506136c46000830184612e0e565b92915050565b60006080820190506136df6000830187612e0e565b6136ec6020830186612e0e565b6136f9604083018561367c565b818103606083015261370b8184612f16565b905095945050505050565b600060608201905061372b6000830186612e0e565b613738602083018561367c565b613745604083018461367c565b949350505050565b600060208201905081810360008301526137678184612e1d565b905092915050565b600060208201905081810360008301526137898184612e92565b905092915050565b60006020820190506137a66000830184612f07565b92915050565b600060208201905081810360008301526137c68184612f88565b905092915050565b600060408201905081810360008301526137e88185612f88565b90506137f76020830184612e0e565b9392505050565b600060408201905081810360008301526138188185612f88565b9050613827602083018461367c565b9392505050565b600060608201905081810360008301526138488186612f88565b9050613857602083018561367c565b613864604083018461367c565b949350505050565b6000602082019050818103600083015261388581612ff2565b9050919050565b600060208201905081810360008301526138a581613058565b9050919050565b600060208201905081810360008301526138c581613098565b9050919050565b600060208201905081810360008301526138e5816130fe565b9050919050565b600060208201905081810360008301526139058161313e565b9050919050565b60006020820190508181036000830152613925816131a4565b9050919050565b600060208201905081810360008301526139458161320a565b9050919050565b6000602082019050818103600083015261396581613270565b9050919050565b60006020820190508181036000830152613985816132d6565b9050919050565b600060208201905081810360008301526139a58161333c565b9050919050565b600060208201905081810360008301526139c58161337c565b9050919050565b600060208201905081810360008301526139e5816133e2565b9050919050565b60006020820190508181036000830152613a0581613448565b9050919050565b60006020820190508181036000830152613a25816134ae565b9050919050565b60006020820190508181036000830152613a4581613514565b9050919050565b60006020820190508181036000830152613a658161357a565b9050919050565b6000602082019050613a81600083018461367c565b92915050565b6000604082019050613a9c600083018561367c565b8181036020830152613aae8184612f88565b90509392505050565b6000606082019050613acc600083018661367c565b613ad9602083018561367c565b8181036040830152613aeb8184612f88565b9050949350505050565b6000604051905081810181811067ffffffffffffffff82111715613b1c57613b1b613ec6565b5b8060405250919050565b600067ffffffffffffffff821115613b4157613b40613ec6565b5b601f19601f8301169050602081019050919050565b6000819050602082019050919050565b6000819050602082019050919050565b600081519050919050565b600081519050919050565b600081519050919050565b600081519050919050565b6000602082019050919050565b6000602082019050919050565b600082825260208201905092915050565b600082825260208201905092915050565b600082825260208201905092915050565b600082825260208201905092915050565b600082825260208201905092915050565b600081905092915050565b6000613c2782613d41565b9150613c3283613d41565b9250827fffffffffffffffffffffffffffffffffffffffffffffffffffffffffffffffff03821115613c6757613c66613e39565b5b828201905092915050565b6000613c7d82613d41565b9150613c8883613d41565b925082613c9857613c97613e68565b5b828204905092915050565b6000613cae82613d41565b9150613cb983613d41565b925082821015613ccc57613ccb613e39565b5b828203905092915050565b6000613ce282613d21565b9050919050565b60008115159050919050565b60007fffffffff0000000000000000000000000000000000000000000000000000000082169050919050565b600073ffffffffffffffffffffffffffffffffffffffff82169050919050565b6000819050919050565b82818337600083830152505050565b60005b83811015613d78578082015181840152602081019050613d5d565b83811115613d87576000848401525b50505050565b60006002820490506001821680613da557607f821691505b60208210811415613db957613db8613e97565b5b50919050565b6000613dca82613d41565b91507fffffffffffffffffffffffffffffffffffffffffffffffffffffffffffffffff821415613dfd57613dfc613e39565b5b600182019050919050565b6000613e1382613d41565b9150613e1e83613d41565b925082613e2e57613e2d613e68565b5b828206905092915050565b7f4e487b7100000000000000000000000000000000000000000000000000000000600052601160045260246000fd5b7f4e487b7100000000000000000000000000000000000000000000000000000000600052601260045260246000fd5b7f4e487b7100000000000000000000000000000000000000000000000000000000600052602260045260246000fd5b7f4e487b7100000000000000000000000000000000000000000000000000000000600052604160045260246000fd5b6000601f19601f8301169050919050565b613f0f81613cd7565b8114613f1a57600080fd5b50565b613f2681613ce9565b8114613f3157600080fd5b50565b613f3d81613cf5565b8114613f4857600080fd5b50565b613f5481613d41565b8114613f5f57600080fd5b5056fe4d696e746564204e465420772f20746f6b656e496420257320616e6420636861726163746572496e646578202573a2646970667358221220b2e7e8b53cbcd16b7b8eafaa1e4a139b1bb4c520570a21933f3ab009ed745fbf64736f6c63430008000033",
    "linkReferences": {},
    "deployedLinkReferences": {}
}