{
  "_format": "hh-sol-artifact-1",
  "contractName": "BackUpContract",
  "sourceName": "contracts/BackUpContract.sol",
  "abi": [
    {
      "inputs": [
        {
          "internalType": "string[]",
          "name": "characterURIs",
          "type": "string[]"
        }
      ],
      "stateMutability": "nonpayable",
      "type": "constructor"
    },
    {
      "anonymous": false,
      "inputs": [
        {
          "indexed": true,
          "internalType": "address",
          "name": "owner",
          "type": "address"
        },
        {
          "indexed": true,
          "internalType": "address",
          "name": "approved",
          "type": "address"
        },
        {
          "indexed": true,
          "internalType": "uint256",
          "name": "tokenId",
          "type": "uint256"
        }
      ],
      "name": "Approval",
      "type": "event"
    },
    {
      "anonymous": false,
      "inputs": [
        {
          "indexed": true,
          "internalType": "address",
          "name": "owner",
          "type": "address"
        },
        {
          "indexed": true,
          "internalType": "address",
          "name": "operator",
          "type": "address"
        },
        {
          "indexed": false,
          "internalType": "bool",
          "name": "approved",
          "type": "bool"
        }
      ],
      "name": "ApprovalForAll",
      "type": "event"
    },
    {
      "anonymous": false,
      "inputs": [
        {
          "indexed": false,
          "internalType": "address",
          "name": "sender",
          "type": "address"
        },
        {
          "indexed": false,
          "internalType": "uint256",
          "name": "tokenId",
          "type": "uint256"
        },
        {
          "indexed": false,
          "internalType": "uint256",
          "name": "characterIndex",
          "type": "uint256"
        }
      ],
      "name": "CharacterNFTMinted",
      "type": "event"
    },
    {
      "anonymous": false,
      "inputs": [
        {
          "indexed": true,
          "internalType": "address",
          "name": "from",
          "type": "address"
        },
        {
          "indexed": true,
          "internalType": "address",
          "name": "to",
          "type": "address"
        },
        {
          "indexed": true,
          "internalType": "uint256",
          "name": "tokenId",
          "type": "uint256"
        }
      ],
      "name": "Transfer",
      "type": "event"
    },
    {
      "inputs": [
        {
          "internalType": "address",
          "name": "to",
          "type": "address"
        },
        {
          "internalType": "uint256",
          "name": "tokenId",
          "type": "uint256"
        }
      ],
      "name": "approve",
      "outputs": [],
      "stateMutability": "nonpayable",
      "type": "function"
    },
    {
      "inputs": [
        {
          "internalType": "address",
          "name": "owner",
          "type": "address"
        }
      ],
      "name": "balanceOf",
      "outputs": [
        {
          "internalType": "uint256",
          "name": "",
          "type": "uint256"
        }
      ],
      "stateMutability": "view",
      "type": "function"
    },
    {
      "inputs": [
        {
          "internalType": "uint256",
          "name": "_tokenId1",
          "type": "uint256"
        },
        {
          "internalType": "uint256",
          "name": "_tokenId2",
          "type": "uint256"
        }
      ],
      "name": "combineNFTs",
      "outputs": [],
      "stateMutability": "nonpayable",
      "type": "function"
    },
    {
      "inputs": [
        {
          "internalType": "uint256",
          "name": "tokenId",
          "type": "uint256"
        }
      ],
      "name": "getApproved",
      "outputs": [
        {
          "internalType": "address",
          "name": "",
          "type": "address"
        }
      ],
      "stateMutability": "view",
      "type": "function"
    },
    {
      "inputs": [],
      "name": "getDefaultCharacters",
      "outputs": [
        {
          "components": [
            {
              "internalType": "uint256",
              "name": "characterIndex",
              "type": "uint256"
            },
            {
              "internalType": "string",
              "name": "characterURI",
              "type": "string"
            }
          ],
          "internalType": "struct BackUpContract.CharacterAttributes[]",
          "name": "",
          "type": "tuple[]"
        }
      ],
      "stateMutability": "view",
      "type": "function"
    },
    {
      "inputs": [],
      "name": "getUserNFTS",
      "outputs": [
        {
          "components": [
            {
              "internalType": "uint256",
              "name": "tokenId",
              "type": "uint256"
            },
            {
              "internalType": "uint256",
              "name": "characterIndex",
              "type": "uint256"
            },
            {
              "internalType": "string",
              "name": "characterURI",
              "type": "string"
            }
          ],
          "internalType": "struct BackUpContract.UserCharacterAttributes[]",
          "name": "",
          "type": "tuple[]"
        }
      ],
      "stateMutability": "view",
      "type": "function"
    },
    {
      "inputs": [
        {
          "internalType": "address",
          "name": "owner",
          "type": "address"
        },
        {
          "internalType": "address",
          "name": "operator",
          "type": "address"
        }
      ],
      "name": "isApprovedForAll",
      "outputs": [
        {
          "internalType": "bool",
          "name": "",
          "type": "bool"
        }
      ],
      "stateMutability": "view",
      "type": "function"
    },
    {
      "inputs": [
        {
          "internalType": "uint256",
          "name": "_characterId",
          "type": "uint256"
        }
      ],
      "name": "mintNFT",
      "outputs": [],
      "stateMutability": "nonpayable",
      "type": "function"
    },
    {
      "inputs": [],
      "name": "name",
      "outputs": [
        {
          "internalType": "string",
          "name": "",
          "type": "string"
        }
      ],
      "stateMutability": "view",
      "type": "function"
    },
    {
      "inputs": [
        {
          "internalType": "address",
          "name": "",
          "type": "address"
        },
        {
          "internalType": "uint256",
          "name": "",
          "type": "uint256"
        }
      ],
      "name": "nftHolders",
      "outputs": [
        {
          "internalType": "uint256",
          "name": "tokenId",
          "type": "uint256"
        },
        {
          "internalType": "uint256",
          "name": "characterIndex",
          "type": "uint256"
        },
        {
          "internalType": "string",
          "name": "characterURI",
          "type": "string"
        }
      ],
      "stateMutability": "view",
      "type": "function"
    },
    {
      "inputs": [
        {
          "internalType": "uint256",
          "name": "",
          "type": "uint256"
        }
      ],
      "name": "nftTokenIdToAttributes",
      "outputs": [
        {
          "internalType": "uint256",
          "name": "characterIndex",
          "type": "uint256"
        },
        {
          "internalType": "string",
          "name": "characterURI",
          "type": "string"
        }
      ],
      "stateMutability": "view",
      "type": "function"
    },
    {
      "inputs": [
        {
          "internalType": "uint256",
          "name": "tokenId",
          "type": "uint256"
        }
      ],
      "name": "ownerOf",
      "outputs": [
        {
          "internalType": "address",
          "name": "",
          "type": "address"
        }
      ],
      "stateMutability": "view",
      "type": "function"
    },
    {
      "inputs": [
        {
          "internalType": "address",
          "name": "from",
          "type": "address"
        },
        {
          "internalType": "address",
          "name": "to",
          "type": "address"
        },
        {
          "internalType": "uint256",
          "name": "tokenId",
          "type": "uint256"
        }
      ],
      "name": "safeTransferFrom",
      "outputs": [],
      "stateMutability": "nonpayable",
      "type": "function"
    },
    {
      "inputs": [
        {
          "internalType": "address",
          "name": "from",
          "type": "address"
        },
        {
          "internalType": "address",
          "name": "to",
          "type": "address"
        },
        {
          "internalType": "uint256",
          "name": "tokenId",
          "type": "uint256"
        },
        {
          "internalType": "bytes",
          "name": "_data",
          "type": "bytes"
        }
      ],
      "name": "safeTransferFrom",
      "outputs": [],
      "stateMutability": "nonpayable",
      "type": "function"
    },
    {
      "inputs": [
        {
          "internalType": "address",
          "name": "operator",
          "type": "address"
        },
        {
          "internalType": "bool",
          "name": "approved",
          "type": "bool"
        }
      ],
      "name": "setApprovalForAll",
      "outputs": [],
      "stateMutability": "nonpayable",
      "type": "function"
    },
    {
      "inputs": [
        {
          "internalType": "bytes4",
          "name": "interfaceId",
          "type": "bytes4"
        }
      ],
      "name": "supportsInterface",
      "outputs": [
        {
          "internalType": "bool",
          "name": "",
          "type": "bool"
        }
      ],
      "stateMutability": "view",
      "type": "function"
    },
    {
      "inputs": [],
      "name": "symbol",
      "outputs": [
        {
          "internalType": "string",
          "name": "",
          "type": "string"
        }
      ],
      "stateMutability": "view",
      "type": "function"
    },
    {
      "inputs": [
        {
          "internalType": "uint256",
          "name": "tokenId",
          "type": "uint256"
        }
      ],
      "name": "tokenURI",
      "outputs": [
        {
          "internalType": "string",
          "name": "",
          "type": "string"
        }
      ],
      "stateMutability": "view",
      "type": "function"
    },
    {
      "inputs": [
        {
          "internalType": "address",
          "name": "from",
          "type": "address"
        },
        {
          "internalType": "address",
          "name": "to",
          "type": "address"
        },
        {
          "internalType": "uint256",
          "name": "tokenId",
          "type": "uint256"
        }
      ],
      "name": "transferFrom",
      "outputs": [],
      "stateMutability": "nonpayable",
      "type": "function"
    }
  ],
  "bytecode": "0x60806040523480156200001157600080fd5b5060405162004b1238038062004b128339818101604052810190620000379190620004ab565b6040518060400160405280600a81526020017f416c6368656d69737473000000000000000000000000000000000000000000008152506040518060400160405280600281526020017f414c0000000000000000000000000000000000000000000000000000000000008152508160009080519060200190620000bb929190620002f7565b508060019080519060200190620000d4929190620002f7565b50505060005b8151811015620001f3576008604051806040016040528083815260200184848151811062000131577f4e487b7100000000000000000000000000000000000000000000000000000000600052603260045260246000fd5b602002602001015181525090806001815401808255809150506001900390600052602060002090600202016000909190919091506000820151816000015560208201518160010190805190602001906200018d929190620002f7565b505050620001dc6040518060400160405280601e81526020017f446f6e6520696e697469616c697a696e67206368617261637465722025730000815250826200021260201b6200153d1760201c565b600181620001eb919062000628565b9050620000da565b506200020b6007620002b860201b620015d91760201c565b5062000799565b620002b482826040516024016200022b92919062000542565b6040516020818303038152906040527f9710a9d0000000000000000000000000000000000000000000000000000000007bffffffffffffffffffffffffffffffffffffffffffffffffffffffff19166020820180517bffffffffffffffffffffffffffffffffffffffffffffffffffffffff8381831617835250505050620002ce60201b60201c565b5050565b6001816000016000828254019250508190555050565b60008151905060006a636f6e736f6c652e6c6f679050602083016000808483855afa5050505050565b8280546200030590620006c5565b90600052602060002090601f01602090048101928262000329576000855562000375565b82601f106200034457805160ff191683800117855562000375565b8280016001018555821562000375579182015b828111156200037457825182559160200191906001019062000357565b5b50905062000384919062000388565b5090565b5b80821115620003a357600081600090555060010162000389565b5090565b6000620003be620003b884620005aa565b62000576565b9050808382526020820190508260005b85811015620004025781518501620003e788826200047e565b845260208401935060208301925050600181019050620003ce565b5050509392505050565b6000620004236200041d84620005d9565b62000576565b9050828152602081018484840111156200043c57600080fd5b620004498482856200068f565b509392505050565b600082601f8301126200046357600080fd5b815162000475848260208601620003a7565b91505092915050565b600082601f8301126200049057600080fd5b8151620004a28482602086016200040c565b91505092915050565b600060208284031215620004be57600080fd5b600082015167ffffffffffffffff811115620004d957600080fd5b620004e78482850162000451565b91505092915050565b6000620004fd826200060c565b62000509818562000617565b93506200051b8185602086016200068f565b620005268162000788565b840191505092915050565b6200053c8162000685565b82525050565b600060408201905081810360008301526200055e8185620004f0565b90506200056f602083018462000531565b9392505050565b6000604051905081810181811067ffffffffffffffff82111715620005a0576200059f62000759565b5b8060405250919050565b600067ffffffffffffffff821115620005c857620005c762000759565b5b602082029050602081019050919050565b600067ffffffffffffffff821115620005f757620005f662000759565b5b601f19601f8301169050602081019050919050565b600081519050919050565b600082825260208201905092915050565b6000620006358262000685565b9150620006428362000685565b9250827fffffffffffffffffffffffffffffffffffffffffffffffffffffffffffffffff038211156200067a5762000679620006fb565b5b828201905092915050565b6000819050919050565b60005b83811015620006af57808201518184015260208101905062000692565b83811115620006bf576000848401525b50505050565b60006002820490506001821680620006de57607f821691505b60208210811415620006f557620006f46200072a565b5b50919050565b7f4e487b7100000000000000000000000000000000000000000000000000000000600052601160045260246000fd5b7f4e487b7100000000000000000000000000000000000000000000000000000000600052602260045260246000fd5b7f4e487b7100000000000000000000000000000000000000000000000000000000600052604160045260246000fd5b6000601f19601f8301169050919050565b61436980620007a96000396000f3fe608060405234801561001057600080fd5b50600436106101215760003560e01c806374bce80a116100ad578063a22cb46511610071578063a22cb46514610331578063b88d4fde1461034d578063c87b56dd14610369578063d3c6729914610399578063e985e9c5146103b557610121565b806374bce80a14610276578063775bb50e1461029457806392642744146102c657806395d89b41146102e25780639ddcf4fa1461030057610121565b8063095ea7b3116100f4578063095ea7b3146101c257806323b872dd146101de57806342842e0e146101fa5780636352211e1461021657806370a082311461024657610121565b806301ffc9a71461012657806306fdde0314610156578063081812fc1461017457806308e34145146101a4575b600080fd5b610140600480360381019061013b91906130d2565b6103e5565b60405161014d9190613b34565b60405180910390f35b61015e6104c7565b60405161016b9190613b4f565b60405180910390f35b61018e60048036038101906101899190613124565b610559565b60405161019b9190613a52565b60405180910390f35b6101ac6105de565b6040516101b99190613b12565b60405180910390f35b6101dc60048036038101906101d79190613096565b610777565b005b6101f860048036038101906101f39190612f90565b61088f565b005b610214600480360381019061020f9190612f90565b6108ef565b005b610230600480360381019061022b9190613124565b61090f565b60405161023d9190613a52565b60405180910390f35b610260600480360381019061025b9190612f2b565b6109c1565b60405161026d9190613e0f565b60405180910390f35b61027e610a79565b60405161028b9190613af0565b60405180910390f35b6102ae60048036038101906102a99190613096565b610b74565b6040516102bd93929190613e5a565b60405180910390f35b6102e060048036038101906102db9190613124565b610c43565b005b6102ea611058565b6040516102f79190613b4f565b60405180910390f35b61031a60048036038101906103159190613124565b6110ea565b604051610328929190613e2a565b60405180910390f35b61034b6004803603810190610346919061305a565b611196565b005b61036760048036038101906103629190612fdf565b6111ac565b005b610383600480360381019061037e9190613124565b61120e565b6040516103909190613b4f565b60405180910390f35b6103b360048036038101906103ae919061314d565b611360565b005b6103cf60048036038101906103ca9190612f54565b6114a9565b6040516103dc9190613b34565b60405180910390f35b60007f80ac58cd000000000000000000000000000000000000000000000000000000007bffffffffffffffffffffffffffffffffffffffffffffffffffffffff1916827bffffffffffffffffffffffffffffffffffffffffffffffffffffffff191614806104b057507f5b5e139f000000000000000000000000000000000000000000000000000000007bffffffffffffffffffffffffffffffffffffffffffffffffffffffff1916827bffffffffffffffffffffffffffffffffffffffffffffffffffffffff1916145b806104c057506104bf826115ef565b5b9050919050565b6060600080546104d690614130565b80601f016020809104026020016040519081016040528092919081815260200182805461050290614130565b801561054f5780601f106105245761010080835404028352916020019161054f565b820191906000526020600020905b81548152906001019060200180831161053257829003601f168201915b5050505050905090565b600061056482611659565b6105a3576040517f08c379a000000000000000000000000000000000000000000000000000000000815260040161059a90613d6f565b60405180910390fd5b6004600083815260200190815260200160002060009054906101000a900473ffffffffffffffffffffffffffffffffffffffff169050919050565b60606000600a60003373ffffffffffffffffffffffffffffffffffffffff1673ffffffffffffffffffffffffffffffffffffffff16815260200190815260200160002080549050111561076d57600a60003373ffffffffffffffffffffffffffffffffffffffff1673ffffffffffffffffffffffffffffffffffffffff168152602001908152602001600020805480602002602001604051908101604052809291908181526020016000905b82821015610762578382906000526020600020906003020160405180606001604052908160008201548152602001600182015481526020016002820180546106d190614130565b80601f01602080910402602001604051908101604052809291908181526020018280546106fd90614130565b801561074a5780601f1061071f5761010080835404028352916020019161074a565b820191906000526020600020905b81548152906001019060200180831161072d57829003601f168201915b5050505050815250508152602001906001019061068a565b505050509050610774565b6060809150505b90565b60006107828261090f565b90508073ffffffffffffffffffffffffffffffffffffffff168373ffffffffffffffffffffffffffffffffffffffff1614156107f3576040517f08c379a00000000000000000000000000000000000000000000000000000000081526004016107ea90613dcf565b60405180910390fd5b8073ffffffffffffffffffffffffffffffffffffffff166108126116c5565b73ffffffffffffffffffffffffffffffffffffffff16148061084157506108408161083b6116c5565b6114a9565b5b610880576040517f08c379a000000000000000000000000000000000000000000000000000000000815260040161087790613caf565b60405180910390fd5b61088a83836116cd565b505050565b6108a061089a6116c5565b82611786565b6108df576040517f08c379a00000000000000000000000000000000000000000000000000000000081526004016108d690613def565b60405180910390fd5b6108ea838383611864565b505050565b61090a838383604051806020016040528060008152506111ac565b505050565b6000806002600084815260200190815260200160002060009054906101000a900473ffffffffffffffffffffffffffffffffffffffff169050600073ffffffffffffffffffffffffffffffffffffffff168173ffffffffffffffffffffffffffffffffffffffff1614156109b8576040517f08c379a00000000000000000000000000000000000000000000000000000000081526004016109af90613cef565b60405180910390fd5b80915050919050565b60008073ffffffffffffffffffffffffffffffffffffffff168273ffffffffffffffffffffffffffffffffffffffff161415610a32576040517f08c379a0000000000000000000000000000000000000000000000000000000008152600401610a2990613ccf565b60405180910390fd5b600360008373ffffffffffffffffffffffffffffffffffffffff1673ffffffffffffffffffffffffffffffffffffffff168152602001908152602001600020549050919050565b60606008805480602002602001604051908101604052809291908181526020016000905b82821015610b6b578382906000526020600020906002020160405180604001604052908160008201548152602001600182018054610ada90614130565b80601f0160208091040260200160405190810160405280929190818152602001828054610b0690614130565b8015610b535780601f10610b2857610100808354040283529160200191610b53565b820191906000526020600020905b815481529060010190602001808311610b3657829003601f168201915b50505050508152505081526020019060010190610a9d565b50505050905090565b600a6020528160005260406000208181548110610b9057600080fd5b906000526020600020906003020160009150915050806000015490806001015490806002018054610bc090614130565b80601f0160208091040260200160405190810160405280929190818152602001828054610bec90614130565b8015610c395780601f10610c0e57610100808354040283529160200191610c39565b820191906000526020600020905b815481529060010190602001808311610c1c57829003601f168201915b5050505050905083565b6000610c4f6007611ac0565b9050610c5b3382611ace565b604051806040016040528083815260200160088481548110610ca6577f4e487b7100000000000000000000000000000000000000000000000000000000600052603260045260246000fd5b90600052602060002090600202016001018054610cc290614130565b80601f0160208091040260200160405190810160405280929190818152602001828054610cee90614130565b8015610d3b5780601f10610d1057610100808354040283529160200191610d3b565b820191906000526020600020905b815481529060010190602001808311610d1e57829003601f168201915b505050505081525060096000838152602001908152602001600020600082015181600001556020820151816001019080519060200190610d7c929190612cea565b50905050600060088381548110610dbc577f4e487b7100000000000000000000000000000000000000000000000000000000600052603260045260246000fd5b90600052602060002090600202016001018054610dd890614130565b80601f0160208091040260200160405190810160405280929190818152602001828054610e0490614130565b8015610e515780601f10610e2657610100808354040283529160200191610e51565b820191906000526020600020905b815481529060010190602001808311610e3457829003601f168201915b50505050509050610e628282611aec565b610e856040518060600160405280602e8152602001614306602e91398385611b60565b600a60003373ffffffffffffffffffffffffffffffffffffffff1673ffffffffffffffffffffffffffffffffffffffff168152602001908152602001600020604051806060016040528084815260200185815260200160088681548110610f15577f4e487b7100000000000000000000000000000000000000000000000000000000600052603260045260246000fd5b90600052602060002090600202016001018054610f3190614130565b80601f0160208091040260200160405190810160405280929190818152602001828054610f5d90614130565b8015610faa5780601f10610f7f57610100808354040283529160200191610faa565b820191906000526020600020905b815481529060010190602001808311610f8d57829003601f168201915b505050505081525090806001815401808255809150506001900390600052602060002090600302016000909190919091506000820151816000015560208201518160010155604082015181600201908051906020019061100b929190612cea565b50505061101860076115d9565b7f4bc303fd457a97b4691b9af582ce71868a3d258638c8d4f8c60988a0f0bfb8cd33838560405161104b93929190613ab9565b60405180910390a1505050565b60606001805461106790614130565b80601f016020809104026020016040519081016040528092919081815260200182805461109390614130565b80156110e05780601f106110b5576101008083540402835291602001916110e0565b820191906000526020600020905b8154815290600101906020018083116110c357829003601f168201915b5050505050905090565b600960205280600052604060002060009150905080600001549080600101805461111390614130565b80601f016020809104026020016040519081016040528092919081815260200182805461113f90614130565b801561118c5780601f106111615761010080835404028352916020019161118c565b820191906000526020600020905b81548152906001019060200180831161116f57829003601f168201915b5050505050905082565b6111a86111a16116c5565b8383611bff565b5050565b6111bd6111b76116c5565b83611786565b6111fc576040517f08c379a00000000000000000000000000000000000000000000000000000000081526004016111f390613def565b60405180910390fd5b61120884848484611d6c565b50505050565b606061121982611659565b611258576040517f08c379a000000000000000000000000000000000000000000000000000000000815260040161124f90613d4f565b60405180910390fd5b600060066000848152602001908152602001600020805461127890614130565b80601f01602080910402602001604051908101604052809291908181526020018280546112a490614130565b80156112f15780601f106112c6576101008083540402835291602001916112f1565b820191906000526020600020905b8154815290600101906020018083116112d457829003601f168201915b505050505090506000611302611dc8565b905060008151141561131857819250505061135b565b60008251111561134d578082604051602001611335929190613a2e565b6040516020818303038152906040529250505061135b565b61135684611ddf565b925050505b919050565b61136982611e86565b801561137a575061137981611e86565b5b156114a5576113be6040518060400160405280601b81526020017f257320697320746865206f776e6572206f6620746865204e465473000000000081525033611fca565b60006113c983612066565b905060006113d683612066565b90506114176040518060400160405280601181526020017f43686172616374657220696e64657820310000000000000000000000000000008152508361153d565b6114566040518060400160405280601181526020017f43686172616374657220696e64657820320000000000000000000000000000008152508261153d565b61145f84612333565b61146883612333565b61147333308661088f565b61147e33308561088f565b6114a260088054905082846114939190613fbf565b61149d91906141ab565b610c43565b50505b5050565b6000600560008473ffffffffffffffffffffffffffffffffffffffff1673ffffffffffffffffffffffffffffffffffffffff16815260200190815260200160002060008373ffffffffffffffffffffffffffffffffffffffff1673ffffffffffffffffffffffffffffffffffffffff16815260200190815260200160002060009054906101000a900460ff16905092915050565b6115d58282604051602401611553929190613ba1565b6040516020818303038152906040527f9710a9d0000000000000000000000000000000000000000000000000000000007bffffffffffffffffffffffffffffffffffffffffffffffffffffffff19166020820180517bffffffffffffffffffffffffffffffffffffffffffffffffffffffff83818316178352505050506126a3565b5050565b6001816000016000828254019250508190555050565b60007f01ffc9a7000000000000000000000000000000000000000000000000000000007bffffffffffffffffffffffffffffffffffffffffffffffffffffffff1916827bffffffffffffffffffffffffffffffffffffffffffffffffffffffff1916149050919050565b60008073ffffffffffffffffffffffffffffffffffffffff166002600084815260200190815260200160002060009054906101000a900473ffffffffffffffffffffffffffffffffffffffff1673ffffffffffffffffffffffffffffffffffffffff1614159050919050565b600033905090565b816004600083815260200190815260200160002060006101000a81548173ffffffffffffffffffffffffffffffffffffffff021916908373ffffffffffffffffffffffffffffffffffffffff160217905550808273ffffffffffffffffffffffffffffffffffffffff166117408361090f565b73ffffffffffffffffffffffffffffffffffffffff167f8c5be1e5ebec7d5bd14f71427d1e84f3dd0314c0f7b2291e5b200ac8c7c3b92560405160405180910390a45050565b600061179182611659565b6117d0576040517f08c379a00000000000000000000000000000000000000000000000000000000081526004016117c790613c8f565b60405180910390fd5b60006117db8361090f565b90508073ffffffffffffffffffffffffffffffffffffffff168473ffffffffffffffffffffffffffffffffffffffff16148061184a57508373ffffffffffffffffffffffffffffffffffffffff1661183284610559565b73ffffffffffffffffffffffffffffffffffffffff16145b8061185b575061185a81856114a9565b5b91505092915050565b8273ffffffffffffffffffffffffffffffffffffffff166118848261090f565b73ffffffffffffffffffffffffffffffffffffffff16146118da576040517f08c379a00000000000000000000000000000000000000000000000000000000081526004016118d190613d8f565b60405180910390fd5b600073ffffffffffffffffffffffffffffffffffffffff168273ffffffffffffffffffffffffffffffffffffffff16141561194a576040517f08c379a000000000000000000000000000000000000000000000000000000000815260040161194190613c4f565b60405180910390fd5b6119558383836126cc565b6119606000826116cd565b6001600360008573ffffffffffffffffffffffffffffffffffffffff1673ffffffffffffffffffffffffffffffffffffffff16815260200190815260200160002060008282546119b09190614046565b925050819055506001600360008473ffffffffffffffffffffffffffffffffffffffff1673ffffffffffffffffffffffffffffffffffffffff1681526020019081526020016000206000828254611a079190613fbf565b92505081905550816002600083815260200190815260200160002060006101000a81548173ffffffffffffffffffffffffffffffffffffffff021916908373ffffffffffffffffffffffffffffffffffffffff160217905550808273ffffffffffffffffffffffffffffffffffffffff168473ffffffffffffffffffffffffffffffffffffffff167fddf252ad1be2c89b69c2b068fc378daa952ba7f163c4a11628f55a4df523b3ef60405160405180910390a4505050565b600081600001549050919050565b611ae88282604051806020016040528060008152506126d1565b5050565b611af582611659565b611b34576040517f08c379a0000000000000000000000000000000000000000000000000000000008152600401611b2b90613d0f565b60405180910390fd5b80600660008481526020019081526020016000209080519060200190611b5b929190612cea565b505050565b611bfa838383604051602401611b7893929190613bd1565b6040516020818303038152906040527f969cdd03000000000000000000000000000000000000000000000000000000007bffffffffffffffffffffffffffffffffffffffffffffffffffffffff19166020820180517bffffffffffffffffffffffffffffffffffffffffffffffffffffffff83818316178352505050506126a3565b505050565b8173ffffffffffffffffffffffffffffffffffffffff168373ffffffffffffffffffffffffffffffffffffffff161415611c6e576040517f08c379a0000000000000000000000000000000000000000000000000000000008152600401611c6590613c6f565b60405180910390fd5b80600560008573ffffffffffffffffffffffffffffffffffffffff1673ffffffffffffffffffffffffffffffffffffffff16815260200190815260200160002060008473ffffffffffffffffffffffffffffffffffffffff1673ffffffffffffffffffffffffffffffffffffffff16815260200190815260200160002060006101000a81548160ff0219169083151502179055508173ffffffffffffffffffffffffffffffffffffffff168373ffffffffffffffffffffffffffffffffffffffff167f17307eab39ab6107e8899845ad3d59bd9653f200f220920489ca2b5937696c3183604051611d5f9190613b34565b60405180910390a3505050565b611d77848484611864565b611d838484848461272c565b611dc2576040517f08c379a0000000000000000000000000000000000000000000000000000000008152600401611db990613c0f565b60405180910390fd5b50505050565b606060405180602001604052806000815250905090565b6060611dea82611659565b611e29576040517f08c379a0000000000000000000000000000000000000000000000000000000008152600401611e2090613daf565b60405180910390fd5b6000611e33611dc8565b90506000815111611e535760405180602001604052806000815250611e7e565b80611e5d846128c3565b604051602001611e6e929190613a2e565b6040516020818303038152906040525b915050919050565b6000805b600a60003373ffffffffffffffffffffffffffffffffffffffff1673ffffffffffffffffffffffffffffffffffffffff16815260200190815260200160002080549050811015611fbf57611f126040518060400160405280600f81526020017f496e73696465206973204f776e65720000000000000000000000000000000000815250612a70565b82600a60003373ffffffffffffffffffffffffffffffffffffffff1673ffffffffffffffffffffffffffffffffffffffff1681526020019081526020016000208281548110611f8a577f4e487b7100000000000000000000000000000000000000000000000000000000600052603260045260246000fd5b9060005260206000209060030201600001541415611fac576001915050611fc5565b8080611fb790614162565b915050611e8a565b50600090505b919050565b6120628282604051602401611fe0929190613b71565b6040516020818303038152906040527f319af333000000000000000000000000000000000000000000000000000000007bffffffffffffffffffffffffffffffffffffffffffffffffffffffff19166020820180517bffffffffffffffffffffffffffffffffffffffffffffffffffffffff83818316178352505050506126a3565b5050565b60006120a66040518060400160405280601581526020017f496e736964652067657420636861726163746572730000000000000000000000815250612a70565b60005b600a60003373ffffffffffffffffffffffffffffffffffffffff1673ffffffffffffffffffffffffffffffffffffffff1681526020019081526020016000208054905081101561232c576121316040518060400160405280600f81526020017f496e7369646520666f72206c6f6f700000000000000000000000000000000000815250612a70565b82600a60003373ffffffffffffffffffffffffffffffffffffffff1673ffffffffffffffffffffffffffffffffffffffff16815260200190815260200160002082815481106121a9577f4e487b7100000000000000000000000000000000000000000000000000000000600052603260045260246000fd5b9060005260206000209060030201600001541415612319576122886040518060400160405280602081526020017f4368617220696e64657820696e73696465206765742063686172616374657273815250600a60003373ffffffffffffffffffffffffffffffffffffffff1673ffffffffffffffffffffffffffffffffffffffff1681526020019081526020016000208381548110612271577f4e487b7100000000000000000000000000000000000000000000000000000000600052603260045260246000fd5b90600052602060002090600302016001015461153d565b600a60003373ffffffffffffffffffffffffffffffffffffffff1673ffffffffffffffffffffffffffffffffffffffff16815260200190815260200160002081815481106122ff577f4e487b7100000000000000000000000000000000000000000000000000000000600052603260045260246000fd5b90600052602060002090600302016001015491505061232e565b808061232490614162565b9150506120a9565b505b919050565b60005b600a60003373ffffffffffffffffffffffffffffffffffffffff1673ffffffffffffffffffffffffffffffffffffffff1681526020019081526020016000208054905081101561269f576123be6040518060400160405280601681526020017f496e736964652072656d6f766543686172616374657200000000000000000000815250612a70565b81600a60003373ffffffffffffffffffffffffffffffffffffffff1673ffffffffffffffffffffffffffffffffffffffff1681526020019081526020016000208281548110612436577f4e487b7100000000000000000000000000000000000000000000000000000000600052603260045260246000fd5b906000526020600020906003020160000154141561268c57600a60003373ffffffffffffffffffffffffffffffffffffffff1673ffffffffffffffffffffffffffffffffffffffff1681526020019081526020016000206001600a60003373ffffffffffffffffffffffffffffffffffffffff1673ffffffffffffffffffffffffffffffffffffffff168152602001908152602001600020805490506124dc9190614046565b81548110612513577f4e487b7100000000000000000000000000000000000000000000000000000000600052603260045260246000fd5b9060005260206000209060030201600a60003373ffffffffffffffffffffffffffffffffffffffff1673ffffffffffffffffffffffffffffffffffffffff1681526020019081526020016000208281548110612598577f4e487b7100000000000000000000000000000000000000000000000000000000600052603260045260246000fd5b9060005260206000209060030201600082015481600001556001820154816001015560028201816002019080546125ce90614130565b6125d9929190612d70565b50905050600a60003373ffffffffffffffffffffffffffffffffffffffff1673ffffffffffffffffffffffffffffffffffffffff168152602001908152602001600020805480612652577f4e487b7100000000000000000000000000000000000000000000000000000000600052603160045260246000fd5b600190038181906000526020600020906003020160008082016000905560018201600090556002820160006126879190612dfd565b505090555b808061269790614162565b915050612336565b5050565b60008151905060006a636f6e736f6c652e6c6f679050602083016000808483855afa5050505050565b505050565b6126db8383612b09565b6126e8600084848461272c565b612727576040517f08c379a000000000000000000000000000000000000000000000000000000000815260040161271e90613c0f565b60405180910390fd5b505050565b600061274d8473ffffffffffffffffffffffffffffffffffffffff16612cd7565b156128b6578373ffffffffffffffffffffffffffffffffffffffff1663150b7a026127766116c5565b8786866040518563ffffffff1660e01b81526004016127989493929190613a6d565b602060405180830381600087803b1580156127b257600080fd5b505af19250505080156127e357506040513d601f19601f820116820180604052508101906127e091906130fb565b60015b612866573d8060008114612813576040519150601f19603f3d011682016040523d82523d6000602084013e612818565b606091505b5060008151141561285e576040517f08c379a000000000000000000000000000000000000000000000000000000000815260040161285590613c0f565b60405180910390fd5b805181602001fd5b63150b7a0260e01b7bffffffffffffffffffffffffffffffffffffffffffffffffffffffff1916817bffffffffffffffffffffffffffffffffffffffffffffffffffffffff1916149150506128bb565b600190505b949350505050565b6060600082141561290b576040518060400160405280600181526020017f30000000000000000000000000000000000000000000000000000000000000008152509050612a6b565b600082905060005b6000821461293d57808061292690614162565b915050600a826129369190614015565b9150612913565b60008167ffffffffffffffff81111561297f577f4e487b7100000000000000000000000000000000000000000000000000000000600052604160045260246000fd5b6040519080825280601f01601f1916602001820160405280156129b15781602001600182028036833780820191505090505b5090505b60008514612a64576001826129ca9190614046565b9150600a856129d991906141ab565b60306129e59190613fbf565b60f81b818381518110612a21577f4e487b7100000000000000000000000000000000000000000000000000000000600052603260045260246000fd5b60200101907effffffffffffffffffffffffffffffffffffffffffffffffffffffffffffff1916908160001a905350600a85612a5d9190614015565b94506129b5565b8093505050505b919050565b612b0681604051602401612a849190613b4f565b6040516020818303038152906040527f41304fac000000000000000000000000000000000000000000000000000000007bffffffffffffffffffffffffffffffffffffffffffffffffffffffff19166020820180517bffffffffffffffffffffffffffffffffffffffffffffffffffffffff83818316178352505050506126a3565b50565b600073ffffffffffffffffffffffffffffffffffffffff168273ffffffffffffffffffffffffffffffffffffffff161415612b79576040517f08c379a0000000000000000000000000000000000000000000000000000000008152600401612b7090613d2f565b60405180910390fd5b612b8281611659565b15612bc2576040517f08c379a0000000000000000000000000000000000000000000000000000000008152600401612bb990613c2f565b60405180910390fd5b612bce600083836126cc565b6001600360008473ffffffffffffffffffffffffffffffffffffffff1673ffffffffffffffffffffffffffffffffffffffff1681526020019081526020016000206000828254612c1e9190613fbf565b92505081905550816002600083815260200190815260200160002060006101000a81548173ffffffffffffffffffffffffffffffffffffffff021916908373ffffffffffffffffffffffffffffffffffffffff160217905550808273ffffffffffffffffffffffffffffffffffffffff16600073ffffffffffffffffffffffffffffffffffffffff167fddf252ad1be2c89b69c2b068fc378daa952ba7f163c4a11628f55a4df523b3ef60405160405180910390a45050565b600080823b905060008111915050919050565b828054612cf690614130565b90600052602060002090601f016020900481019282612d185760008555612d5f565b82601f10612d3157805160ff1916838001178555612d5f565b82800160010185558215612d5f579182015b82811115612d5e578251825591602001919060010190612d43565b5b509050612d6c9190612e3d565b5090565b828054612d7c90614130565b90600052602060002090601f016020900481019282612d9e5760008555612dec565b82601f10612daf5780548555612dec565b82800160010185558215612dec57600052602060002091601f016020900482015b82811115612deb578254825591600101919060010190612dd0565b5b509050612df99190612e3d565b5090565b508054612e0990614130565b6000825580601f10612e1b5750612e3a565b601f016020900490600052602060002090810190612e399190612e3d565b5b50565b5b80821115612e56576000816000905550600101612e3e565b5090565b6000612e6d612e6884613ec9565b613e98565b905082815260208101848484011115612e8557600080fd5b612e908482856140ee565b509392505050565b600081359050612ea7816142a9565b92915050565b600081359050612ebc816142c0565b92915050565b600081359050612ed1816142d7565b92915050565b600081519050612ee6816142d7565b92915050565b600082601f830112612efd57600080fd5b8135612f0d848260208601612e5a565b91505092915050565b600081359050612f25816142ee565b92915050565b600060208284031215612f3d57600080fd5b6000612f4b84828501612e98565b91505092915050565b60008060408385031215612f6757600080fd5b6000612f7585828601612e98565b9250506020612f8685828601612e98565b9150509250929050565b600080600060608486031215612fa557600080fd5b6000612fb386828701612e98565b9350506020612fc486828701612e98565b9250506040612fd586828701612f16565b9150509250925092565b60008060008060808587031215612ff557600080fd5b600061300387828801612e98565b945050602061301487828801612e98565b935050604061302587828801612f16565b925050606085013567ffffffffffffffff81111561304257600080fd5b61304e87828801612eec565b91505092959194509250565b6000806040838503121561306d57600080fd5b600061307b85828601612e98565b925050602061308c85828601612ead565b9150509250929050565b600080604083850312156130a957600080fd5b60006130b785828601612e98565b92505060206130c885828601612f16565b9150509250929050565b6000602082840312156130e457600080fd5b60006130f284828501612ec2565b91505092915050565b60006020828403121561310d57600080fd5b600061311b84828501612ed7565b91505092915050565b60006020828403121561313657600080fd5b600061314484828501612f16565b91505092915050565b6000806040838503121561316057600080fd5b600061316e85828601612f16565b925050602061317f85828601612f16565b9150509250929050565b60006131958383613983565b905092915050565b60006131a983836139c0565b905092915050565b6131ba8161407a565b82525050565b60006131cb82613f19565b6131d58185613f5f565b9350836020820285016131e785613ef9565b8060005b8581101561322357848403895281516132048582613189565b945061320f83613f45565b925060208a019950506001810190506131eb565b50829750879550505050505092915050565b600061324082613f24565b61324a8185613f70565b93508360208202850161325c85613f09565b8060005b858110156132985784840389528151613279858261319d565b945061328483613f52565b925060208a01995050600181019050613260565b50829750879550505050505092915050565b6132b38161408c565b82525050565b60006132c482613f2f565b6132ce8185613f81565b93506132de8185602086016140fd565b6132e781614298565b840191505092915050565b60006132fd82613f3a565b6133078185613f92565b93506133178185602086016140fd565b61332081614298565b840191505092915050565b600061333682613f3a565b6133408185613fa3565b93506133508185602086016140fd565b61335981614298565b840191505092915050565b600061336f82613f3a565b6133798185613fb4565b93506133898185602086016140fd565b80840191505092915050565b60006133a2603283613fa3565b91507f4552433732313a207472616e7366657220746f206e6f6e20455243373231526560008301527f63656976657220696d706c656d656e74657200000000000000000000000000006020830152604082019050919050565b6000613408601c83613fa3565b91507f4552433732313a20746f6b656e20616c7265616479206d696e746564000000006000830152602082019050919050565b6000613448602483613fa3565b91507f4552433732313a207472616e7366657220746f20746865207a65726f2061646460008301527f72657373000000000000000000000000000000000000000000000000000000006020830152604082019050919050565b60006134ae601983613fa3565b91507f4552433732313a20617070726f766520746f2063616c6c6572000000000000006000830152602082019050919050565b60006134ee602c83613fa3565b91507f4552433732313a206f70657261746f7220717565727920666f72206e6f6e657860008301527f697374656e7420746f6b656e00000000000000000000000000000000000000006020830152604082019050919050565b6000613554603883613fa3565b91507f4552433732313a20617070726f76652063616c6c6572206973206e6f74206f7760008301527f6e6572206e6f7220617070726f76656420666f7220616c6c00000000000000006020830152604082019050919050565b60006135ba602a83613fa3565b91507f4552433732313a2062616c616e636520717565727920666f7220746865207a6560008301527f726f2061646472657373000000000000000000000000000000000000000000006020830152604082019050919050565b6000613620602983613fa3565b91507f4552433732313a206f776e657220717565727920666f72206e6f6e657869737460008301527f656e7420746f6b656e00000000000000000000000000000000000000000000006020830152604082019050919050565b6000613686602e83613fa3565b91507f45524337323155524953746f726167653a2055524920736574206f66206e6f6e60008301527f6578697374656e7420746f6b656e0000000000000000000000000000000000006020830152604082019050919050565b60006136ec602083613fa3565b91507f4552433732313a206d696e7420746f20746865207a65726f20616464726573736000830152602082019050919050565b600061372c603183613fa3565b91507f45524337323155524953746f726167653a2055524920717565727920666f722060008301527f6e6f6e6578697374656e7420746f6b656e0000000000000000000000000000006020830152604082019050919050565b6000613792602c83613fa3565b91507f4552433732313a20617070726f76656420717565727920666f72206e6f6e657860008301527f697374656e7420746f6b656e00000000000000000000000000000000000000006020830152604082019050919050565b60006137f8602983613fa3565b91507f4552433732313a207472616e73666572206f6620746f6b656e2074686174206960008301527f73206e6f74206f776e00000000000000000000000000000000000000000000006020830152604082019050919050565b600061385e602f83613fa3565b91507f4552433732314d657461646174613a2055524920717565727920666f72206e6f60008301527f6e6578697374656e7420746f6b656e00000000000000000000000000000000006020830152604082019050919050565b60006138c4602183613fa3565b91507f4552433732313a20617070726f76616c20746f2063757272656e74206f776e6560008301527f72000000000000000000000000000000000000000000000000000000000000006020830152604082019050919050565b600061392a603183613fa3565b91507f4552433732313a207472616e736665722063616c6c6572206973206e6f74206f60008301527f776e6572206e6f7220617070726f7665640000000000000000000000000000006020830152604082019050919050565b600060408301600083015161399b6000860182613a10565b50602083015184820360208601526139b382826132f2565b9150508091505092915050565b60006060830160008301516139d86000860182613a10565b5060208301516139eb6020860182613a10565b5060408301518482036040860152613a0382826132f2565b9150508091505092915050565b613a19816140e4565b82525050565b613a28816140e4565b82525050565b6000613a3a8285613364565b9150613a468284613364565b91508190509392505050565b6000602082019050613a6760008301846131b1565b92915050565b6000608082019050613a8260008301876131b1565b613a8f60208301866131b1565b613a9c6040830185613a1f565b8181036060830152613aae81846132b9565b905095945050505050565b6000606082019050613ace60008301866131b1565b613adb6020830185613a1f565b613ae86040830184613a1f565b949350505050565b60006020820190508181036000830152613b0a81846131c0565b905092915050565b60006020820190508181036000830152613b2c8184613235565b905092915050565b6000602082019050613b4960008301846132aa565b92915050565b60006020820190508181036000830152613b69818461332b565b905092915050565b60006040820190508181036000830152613b8b818561332b565b9050613b9a60208301846131b1565b9392505050565b60006040820190508181036000830152613bbb818561332b565b9050613bca6020830184613a1f565b9392505050565b60006060820190508181036000830152613beb818661332b565b9050613bfa6020830185613a1f565b613c076040830184613a1f565b949350505050565b60006020820190508181036000830152613c2881613395565b9050919050565b60006020820190508181036000830152613c48816133fb565b9050919050565b60006020820190508181036000830152613c688161343b565b9050919050565b60006020820190508181036000830152613c88816134a1565b9050919050565b60006020820190508181036000830152613ca8816134e1565b9050919050565b60006020820190508181036000830152613cc881613547565b9050919050565b60006020820190508181036000830152613ce8816135ad565b9050919050565b60006020820190508181036000830152613d0881613613565b9050919050565b60006020820190508181036000830152613d2881613679565b9050919050565b60006020820190508181036000830152613d48816136df565b9050919050565b60006020820190508181036000830152613d688161371f565b9050919050565b60006020820190508181036000830152613d8881613785565b9050919050565b60006020820190508181036000830152613da8816137eb565b9050919050565b60006020820190508181036000830152613dc881613851565b9050919050565b60006020820190508181036000830152613de8816138b7565b9050919050565b60006020820190508181036000830152613e088161391d565b9050919050565b6000602082019050613e246000830184613a1f565b92915050565b6000604082019050613e3f6000830185613a1f565b8181036020830152613e51818461332b565b90509392505050565b6000606082019050613e6f6000830186613a1f565b613e7c6020830185613a1f565b8181036040830152613e8e818461332b565b9050949350505050565b6000604051905081810181811067ffffffffffffffff82111715613ebf57613ebe614269565b5b8060405250919050565b600067ffffffffffffffff821115613ee457613ee3614269565b5b601f19601f8301169050602081019050919050565b6000819050602082019050919050565b6000819050602082019050919050565b600081519050919050565b600081519050919050565b600081519050919050565b600081519050919050565b6000602082019050919050565b6000602082019050919050565b600082825260208201905092915050565b600082825260208201905092915050565b600082825260208201905092915050565b600082825260208201905092915050565b600082825260208201905092915050565b600081905092915050565b6000613fca826140e4565b9150613fd5836140e4565b9250827fffffffffffffffffffffffffffffffffffffffffffffffffffffffffffffffff0382111561400a576140096141dc565b5b828201905092915050565b6000614020826140e4565b915061402b836140e4565b92508261403b5761403a61420b565b5b828204905092915050565b6000614051826140e4565b915061405c836140e4565b92508282101561406f5761406e6141dc565b5b828203905092915050565b6000614085826140c4565b9050919050565b60008115159050919050565b60007fffffffff0000000000000000000000000000000000000000000000000000000082169050919050565b600073ffffffffffffffffffffffffffffffffffffffff82169050919050565b6000819050919050565b82818337600083830152505050565b60005b8381101561411b578082015181840152602081019050614100565b8381111561412a576000848401525b50505050565b6000600282049050600182168061414857607f821691505b6020821081141561415c5761415b61423a565b5b50919050565b600061416d826140e4565b91507fffffffffffffffffffffffffffffffffffffffffffffffffffffffffffffffff8214156141a05761419f6141dc565b5b600182019050919050565b60006141b6826140e4565b91506141c1836140e4565b9250826141d1576141d061420b565b5b828206905092915050565b7f4e487b7100000000000000000000000000000000000000000000000000000000600052601160045260246000fd5b7f4e487b7100000000000000000000000000000000000000000000000000000000600052601260045260246000fd5b7f4e487b7100000000000000000000000000000000000000000000000000000000600052602260045260246000fd5b7f4e487b7100000000000000000000000000000000000000000000000000000000600052604160045260246000fd5b6000601f19601f8301169050919050565b6142b28161407a565b81146142bd57600080fd5b50565b6142c98161408c565b81146142d457600080fd5b50565b6142e081614098565b81146142eb57600080fd5b50565b6142f7816140e4565b811461430257600080fd5b5056fe4d696e746564204e465420772f20746f6b656e496420257320616e6420636861726163746572496e646578202573a26469706673582212203c500a9e4c0bd504f4b69ddb313353426cec2005e327f2246e3d52129b428ce464736f6c63430008000033",
  "linkReferences": {},
  "deployedLinkReferences": {}
}